{
	"day02/FundMe.sol": {
		"FounMe": {
			"abi": [
				{
					"inputs": [],
					"stateMutability": "nonpayable",
					"type": "constructor"
				},
				{
					"inputs": [],
					"name": "fund",
					"outputs": [],
					"stateMutability": "payable",
					"type": "function"
				},
				{
					"inputs": [
						{
							"internalType": "address",
							"name": "",
							"type": "address"
						}
					],
					"name": "fundersToAmount",
					"outputs": [
						{
							"internalType": "uint256",
							"name": "",
							"type": "uint256"
						}
					],
					"stateMutability": "view",
					"type": "function"
				},
				{
					"inputs": [],
					"name": "getChainlinkDataFeedLatestAnswer",
					"outputs": [
						{
							"internalType": "int256",
							"name": "",
							"type": "int256"
						}
					],
					"stateMutability": "view",
					"type": "function"
				},
				{
					"inputs": [],
					"name": "getFound",
					"outputs": [],
					"stateMutability": "nonpayable",
					"type": "function"
				},
				{
					"inputs": [],
					"name": "owner",
					"outputs": [
						{
							"internalType": "address",
							"name": "",
							"type": "address"
						}
					],
					"stateMutability": "view",
					"type": "function"
				},
				{
					"inputs": [],
					"name": "reFund",
					"outputs": [],
					"stateMutability": "nonpayable",
					"type": "function"
				},
				{
					"inputs": [
						{
							"internalType": "address",
							"name": "newOwner",
							"type": "address"
						}
					],
					"name": "transferOwnership",
					"outputs": [],
					"stateMutability": "nonpayable",
					"type": "function"
				}
			],
			"devdoc": {
				"kind": "dev",
				"methods": {},
				"version": 1
			},
			"evm": {
				"assembly": "    /* \"day02/FundMe.sol\":351:2682  contract FounMe {... */\n  mstore(0x40, 0x80)\n    /* \"day02/FundMe.sol\":557:571  100 * 10 ** 18 */\n  0x056bc75e2d63100000\n    /* \"day02/FundMe.sol\":537:571  uint256 MIN_VALUE = 100 * 10 ** 18 */\n  0x03\n  sstore\n    /* \"day02/FundMe.sol\":660:817  constructor() {... */\n  callvalue\n  dup1\n  iszero\n  tag_1\n  jumpi\n  0x00\n  dup1\n  revert\ntag_1:\n  pop\n    /* \"day02/FundMe.sol\":730:772  0x694AA1769357215DE4FAC081bf1f309aDC325306 */\n  0x694aa1769357215de4fac081bf1f309adc325306\n    /* \"day02/FundMe.sol\":684:692  dataFeed */\n  0x00\n  dup1\n    /* \"day02/FundMe.sol\":684:782  dataFeed = AggregatorV3Interface(... */\n  0x0100\n  exp\n  dup2\n  sload\n  dup2\n  0xffffffffffffffffffffffffffffffffffffffff\n  mul\n  not\n  and\n  swap1\n  dup4\n  0xffffffffffffffffffffffffffffffffffffffff\n  and\n  mul\n  or\n  swap1\n  sstore\n  pop\n    /* \"day02/FundMe.sol\":800:810  msg.sender */\n  caller\n    /* \"day02/FundMe.sol\":792:797  owner */\n  0x01\n  0x00\n    /* \"day02/FundMe.sol\":792:810  owner = msg.sender */\n  0x0100\n  exp\n  dup2\n  sload\n  dup2\n  0xffffffffffffffffffffffffffffffffffffffff\n  mul\n  not\n  and\n  swap1\n  dup4\n  0xffffffffffffffffffffffffffffffffffffffff\n  and\n  mul\n  or\n  swap1\n  sstore\n  pop\n    /* \"day02/FundMe.sol\":351:2682  contract FounMe {... */\n  dataSize(sub_0)\n  dup1\n  dataOffset(sub_0)\n  0x00\n  codecopy\n  0x00\n  return\nstop\n\nsub_0: assembly {\n        /* \"day02/FundMe.sol\":351:2682  contract FounMe {... */\n      mstore(0x40, 0x80)\n      jumpi(tag_1, lt(calldatasize, 0x04))\n      shr(0xe0, calldataload(0x00))\n      dup1\n      0x9f883a05\n      gt\n      tag_9\n      jumpi\n      dup1\n      0x9f883a05\n      eq\n      tag_5\n      jumpi\n      dup1\n      0xb60d4288\n      eq\n      tag_6\n      jumpi\n      dup1\n      0xbea4dfb5\n      eq\n      tag_7\n      jumpi\n      dup1\n      0xf2fde38b\n      eq\n      tag_8\n      jumpi\n      jump(tag_1)\n    tag_9:\n      dup1\n      0x0ff0a4df\n      eq\n      tag_2\n      jumpi\n      dup1\n      0x829006b3\n      eq\n      tag_3\n      jumpi\n      dup1\n      0x8da5cb5b\n      eq\n      tag_4\n      jumpi\n    tag_1:\n      0x00\n      dup1\n      revert\n        /* \"day02/FundMe.sol\":2289:2680  function reFund() external {... */\n    tag_2:\n      callvalue\n      dup1\n      iszero\n      tag_10\n      jumpi\n      0x00\n      dup1\n      revert\n    tag_10:\n      pop\n      tag_11\n      tag_12\n      jump\t// in\n    tag_11:\n      stop\n        /* \"day02/FundMe.sol\":1729:2283  function getFound() external  {... */\n    tag_3:\n      callvalue\n      dup1\n      iszero\n      tag_13\n      jumpi\n      0x00\n      dup1\n      revert\n    tag_13:\n      pop\n      tag_14\n      tag_15\n      jump\t// in\n    tag_14:\n      stop\n        /* \"day02/FundMe.sol\":418:439  address public  owner */\n    tag_4:\n      callvalue\n      dup1\n      iszero\n      tag_16\n      jumpi\n      0x00\n      dup1\n      revert\n    tag_16:\n      pop\n      tag_17\n      tag_18\n      jump\t// in\n    tag_17:\n      mload(0x40)\n      tag_19\n      swap2\n      swap1\n      tag_20\n      jump\t// in\n    tag_19:\n      mload(0x40)\n      dup1\n      swap2\n      sub\n      swap1\n      return\n        /* \"day02/FundMe.sol\":446:496  mapping(address => uint256) public fundersToAmount */\n    tag_5:\n      callvalue\n      dup1\n      iszero\n      tag_21\n      jumpi\n      0x00\n      dup1\n      revert\n    tag_21:\n      pop\n      tag_22\n      0x04\n      dup1\n      calldatasize\n      sub\n      dup2\n      add\n      swap1\n      tag_23\n      swap2\n      swap1\n      tag_24\n      jump\t// in\n    tag_23:\n      tag_25\n      jump\t// in\n    tag_22:\n      mload(0x40)\n      tag_26\n      swap2\n      swap1\n      tag_27\n      jump\t// in\n    tag_26:\n      mload(0x40)\n      dup1\n      swap2\n      sub\n      swap1\n      return\n        /* \"day02/FundMe.sol\":823:990  function fund() external payable  {... */\n    tag_6:\n      tag_28\n      tag_29\n      jump\t// in\n    tag_28:\n      stop\n        /* \"day02/FundMe.sol\":996:1343  function getChainlinkDataFeedLatestAnswer() public view returns (int) {... */\n    tag_7:\n      callvalue\n      dup1\n      iszero\n      tag_30\n      jumpi\n      0x00\n      dup1\n      revert\n    tag_30:\n      pop\n      tag_31\n      tag_32\n      jump\t// in\n    tag_31:\n      mload(0x40)\n      tag_33\n      swap2\n      swap1\n      tag_34\n      jump\t// in\n    tag_33:\n      mload(0x40)\n      dup1\n      swap2\n      sub\n      swap1\n      return\n        /* \"day02/FundMe.sol\":1561:1722  function transferOwnership(address newOwner) public  {... */\n    tag_8:\n      callvalue\n      dup1\n      iszero\n      tag_35\n      jumpi\n      0x00\n      dup1\n      revert\n    tag_35:\n      pop\n      tag_36\n      0x04\n      dup1\n      calldatasize\n      sub\n      dup2\n      add\n      swap1\n      tag_37\n      swap2\n      swap1\n      tag_24\n      jump\t// in\n    tag_37:\n      tag_38\n      jump\t// in\n    tag_36:\n      stop\n        /* \"day02/FundMe.sol\":2289:2680  function reFund() external {... */\n    tag_12:\n        /* \"day02/FundMe.sol\":631:645  200 * 10 ** 18 */\n      0x0ad78ebc5ac6200000\n        /* \"day02/FundMe.sol\":2334:2372  convertEthToUsd(address(this).balance) */\n      tag_40\n        /* \"day02/FundMe.sol\":2350:2371  address(this).balance */\n      selfbalance\n        /* \"day02/FundMe.sol\":2334:2349  convertEthToUsd */\n      tag_41\n        /* \"day02/FundMe.sol\":2334:2372  convertEthToUsd(address(this).balance) */\n      jump\t// in\n    tag_40:\n        /* \"day02/FundMe.sol\":2334:2382  convertEthToUsd(address(this).balance) <= TARGET */\n      gt\n      iszero\n        /* \"day02/FundMe.sol\":2326:2404  require(convertEthToUsd(address(this).balance) <= TARGET,\"Target is reached!\") */\n      tag_42\n      jumpi\n      mload(0x40)\n      0x08c379a000000000000000000000000000000000000000000000000000000000\n      dup2\n      mstore\n      0x04\n      add\n      tag_43\n      swap1\n      tag_44\n      jump\t// in\n    tag_43:\n      mload(0x40)\n      dup1\n      swap2\n      sub\n      swap1\n      revert\n    tag_42:\n        /* \"day02/FundMe.sol\":2453:2454  0 */\n      0x00\n        /* \"day02/FundMe.sol\":2422:2437  fundersToAmount */\n      0x02\n        /* \"day02/FundMe.sol\":2422:2449  fundersToAmount[msg.sender] */\n      0x00\n        /* \"day02/FundMe.sol\":2438:2448  msg.sender */\n      caller\n        /* \"day02/FundMe.sol\":2422:2449  fundersToAmount[msg.sender] */\n      0xffffffffffffffffffffffffffffffffffffffff\n      and\n      0xffffffffffffffffffffffffffffffffffffffff\n      and\n      dup2\n      mstore\n      0x20\n      add\n      swap1\n      dup2\n      mstore\n      0x20\n      add\n      0x00\n      keccak256\n      sload\n        /* \"day02/FundMe.sol\":2422:2454  fundersToAmount[msg.sender] != 0 */\n      sub\n        /* \"day02/FundMe.sol\":2414:2482  require(fundersToAmount[msg.sender] != 0,\"You have not funded yet!\") */\n      tag_45\n      jumpi\n      mload(0x40)\n      0x08c379a000000000000000000000000000000000000000000000000000000000\n      dup2\n      mstore\n      0x04\n      add\n      tag_46\n      swap1\n      tag_47\n      jump\t// in\n    tag_46:\n      mload(0x40)\n      dup1\n      swap2\n      sub\n      swap1\n      revert\n    tag_45:\n        /* \"day02/FundMe.sol\":2492:2504  bool success */\n      0x00\n        /* \"day02/FundMe.sol\":2535:2545  msg.sender */\n      caller\n        /* \"day02/FundMe.sol\":2527:2551  payable(msg.sender).call */\n      0xffffffffffffffffffffffffffffffffffffffff\n      and\n        /* \"day02/FundMe.sol\":2558:2573  fundersToAmount */\n      0x02\n        /* \"day02/FundMe.sol\":2558:2585  fundersToAmount[msg.sender] */\n      0x00\n        /* \"day02/FundMe.sol\":2574:2584  msg.sender */\n      caller\n        /* \"day02/FundMe.sol\":2558:2585  fundersToAmount[msg.sender] */\n      0xffffffffffffffffffffffffffffffffffffffff\n      and\n      0xffffffffffffffffffffffffffffffffffffffff\n      and\n      dup2\n      mstore\n      0x20\n      add\n      swap1\n      dup2\n      mstore\n      0x20\n      add\n      0x00\n      keccak256\n      sload\n        /* \"day02/FundMe.sol\":2527:2590  payable(msg.sender).call{value:fundersToAmount[msg.sender]}(\"\") */\n      mload(0x40)\n      tag_48\n      swap1\n      tag_49\n      jump\t// in\n    tag_48:\n      0x00\n      mload(0x40)\n      dup1\n      dup4\n      sub\n      dup2\n      dup6\n      dup8\n      gas\n      call\n      swap3\n      pop\n      pop\n      pop\n      returndatasize\n      dup1\n      0x00\n      dup2\n      eq\n      tag_52\n      jumpi\n      mload(0x40)\n      swap2\n      pop\n      and(add(returndatasize, 0x3f), not(0x1f))\n      dup3\n      add\n      0x40\n      mstore\n      returndatasize\n      dup3\n      mstore\n      returndatasize\n      0x00\n      0x20\n      dup5\n      add\n      returndatacopy\n      jump(tag_51)\n    tag_52:\n      0x60\n      swap2\n      pop\n    tag_51:\n      pop\n        /* \"day02/FundMe.sol\":2514:2590  (success,) = payable(msg.sender).call{value:fundersToAmount[msg.sender]}(\"\") */\n      pop\n      dup1\n      swap2\n      pop\n      pop\n        /* \"day02/FundMe.sol\":2608:2615  success */\n      dup1\n        /* \"day02/FundMe.sol\":2600:2632  require(success,\"refund error!\") */\n      tag_53\n      jumpi\n      mload(0x40)\n      0x08c379a000000000000000000000000000000000000000000000000000000000\n      dup2\n      mstore\n      0x04\n      add\n      tag_54\n      swap1\n      tag_55\n      jump\t// in\n    tag_54:\n      mload(0x40)\n      dup1\n      swap2\n      sub\n      swap1\n      revert\n    tag_53:\n        /* \"day02/FundMe.sol\":2672:2673  0 */\n      0x00\n        /* \"day02/FundMe.sol\":2642:2657  fundersToAmount */\n      0x02\n        /* \"day02/FundMe.sol\":2642:2669  fundersToAmount[msg.sender] */\n      0x00\n        /* \"day02/FundMe.sol\":2658:2668  msg.sender */\n      caller\n        /* \"day02/FundMe.sol\":2642:2669  fundersToAmount[msg.sender] */\n      0xffffffffffffffffffffffffffffffffffffffff\n      and\n      0xffffffffffffffffffffffffffffffffffffffff\n      and\n      dup2\n      mstore\n      0x20\n      add\n      swap1\n      dup2\n      mstore\n      0x20\n      add\n      0x00\n      keccak256\n        /* \"day02/FundMe.sol\":2642:2673  fundersToAmount[msg.sender] = 0 */\n      dup2\n      swap1\n      sstore\n      pop\n        /* \"day02/FundMe.sol\":2316:2680  {... */\n      pop\n        /* \"day02/FundMe.sol\":2289:2680  function reFund() external {... */\n      jump\t// out\n        /* \"day02/FundMe.sol\":1729:2283  function getFound() external  {... */\n    tag_15:\n        /* \"day02/FundMe.sol\":631:645  200 * 10 ** 18 */\n      0x0ad78ebc5ac6200000\n        /* \"day02/FundMe.sol\":1777:1815  convertEthToUsd(address(this).balance) */\n      tag_57\n        /* \"day02/FundMe.sol\":1793:1814  address(this).balance */\n      selfbalance\n        /* \"day02/FundMe.sol\":1777:1792  convertEthToUsd */\n      tag_41\n        /* \"day02/FundMe.sol\":1777:1815  convertEthToUsd(address(this).balance) */\n      jump\t// in\n    tag_57:\n        /* \"day02/FundMe.sol\":1777:1825  convertEthToUsd(address(this).balance) >= TARGET */\n      lt\n      iszero\n        /* \"day02/FundMe.sol\":1769:1848  require(convertEthToUsd(address(this).balance) >= TARGET,\"Target not reached!\") */\n      tag_58\n      jumpi\n      mload(0x40)\n      0x08c379a000000000000000000000000000000000000000000000000000000000\n      dup2\n      mstore\n      0x04\n      add\n      tag_59\n      swap1\n      tag_60\n      jump\t// in\n    tag_59:\n      mload(0x40)\n      dup1\n      swap2\n      sub\n      swap1\n      revert\n    tag_58:\n        /* \"day02/FundMe.sol\":1880:1885  owner */\n      0x01\n      0x00\n      swap1\n      sload\n      swap1\n      0x0100\n      exp\n      swap1\n      div\n      0xffffffffffffffffffffffffffffffffffffffff\n      and\n        /* \"day02/FundMe.sol\":1866:1885  msg.sender == owner */\n      0xffffffffffffffffffffffffffffffffffffffff\n      and\n        /* \"day02/FundMe.sol\":1866:1876  msg.sender */\n      caller\n        /* \"day02/FundMe.sol\":1866:1885  msg.sender == owner */\n      0xffffffffffffffffffffffffffffffffffffffff\n      and\n      eq\n        /* \"day02/FundMe.sol\":1858:1909  require(msg.sender == owner,\"Only Owner can fund!\") */\n      tag_61\n      jumpi\n      mload(0x40)\n      0x08c379a000000000000000000000000000000000000000000000000000000000\n      dup2\n      mstore\n      0x04\n      add\n      tag_62\n      swap1\n      tag_63\n      jump\t// in\n    tag_62:\n      mload(0x40)\n      dup1\n      swap2\n      sub\n      swap1\n      revert\n    tag_61:\n        /* \"day02/FundMe.sol\":2142:2154  bool success */\n      0x00\n        /* \"day02/FundMe.sol\":2185:2195  msg.sender */\n      caller\n        /* \"day02/FundMe.sol\":2177:2201  payable(msg.sender).call */\n      0xffffffffffffffffffffffffffffffffffffffff\n      and\n        /* \"day02/FundMe.sol\":2208:2229  address(this).balance */\n      selfbalance\n        /* \"day02/FundMe.sol\":2177:2234  payable(msg.sender).call{value:address(this).balance}(\"\") */\n      mload(0x40)\n      tag_64\n      swap1\n      tag_49\n      jump\t// in\n    tag_64:\n      0x00\n      mload(0x40)\n      dup1\n      dup4\n      sub\n      dup2\n      dup6\n      dup8\n      gas\n      call\n      swap3\n      pop\n      pop\n      pop\n      returndatasize\n      dup1\n      0x00\n      dup2\n      eq\n      tag_67\n      jumpi\n      mload(0x40)\n      swap2\n      pop\n      and(add(returndatasize, 0x3f), not(0x1f))\n      dup3\n      add\n      0x40\n      mstore\n      returndatasize\n      dup3\n      mstore\n      returndatasize\n      0x00\n      0x20\n      dup5\n      add\n      returndatacopy\n      jump(tag_66)\n    tag_67:\n      0x60\n      swap2\n      pop\n    tag_66:\n      pop\n        /* \"day02/FundMe.sol\":2164:2234  (success,) = payable(msg.sender).call{value:address(this).balance}(\"\") */\n      pop\n      dup1\n      swap2\n      pop\n      pop\n        /* \"day02/FundMe.sol\":2252:2259  success */\n      dup1\n        /* \"day02/FundMe.sol\":2244:2274  require(success,\"call error!\") */\n      tag_68\n      jumpi\n      mload(0x40)\n      0x08c379a000000000000000000000000000000000000000000000000000000000\n      dup2\n      mstore\n      0x04\n      add\n      tag_69\n      swap1\n      tag_70\n      jump\t// in\n    tag_69:\n      mload(0x40)\n      dup1\n      swap2\n      sub\n      swap1\n      revert\n    tag_68:\n        /* \"day02/FundMe.sol\":1759:2283  {... */\n      pop\n        /* \"day02/FundMe.sol\":1729:2283  function getFound() external  {... */\n      jump\t// out\n        /* \"day02/FundMe.sol\":418:439  address public  owner */\n    tag_18:\n      0x01\n      0x00\n      swap1\n      sload\n      swap1\n      0x0100\n      exp\n      swap1\n      div\n      0xffffffffffffffffffffffffffffffffffffffff\n      and\n      dup2\n      jump\t// out\n        /* \"day02/FundMe.sol\":446:496  mapping(address => uint256) public fundersToAmount */\n    tag_25:\n      mstore(0x20, 0x02)\n      dup1\n      0x00\n      mstore\n      keccak256(0x00, 0x40)\n      0x00\n      swap2\n      pop\n      swap1\n      pop\n      sload\n      dup2\n      jump\t// out\n        /* \"day02/FundMe.sol\":823:990  function fund() external payable  {... */\n    tag_29:\n        /* \"day02/FundMe.sol\":888:914  convertEthToUsd(msg.value) */\n      tag_72\n        /* \"day02/FundMe.sol\":904:913  msg.value */\n      callvalue\n        /* \"day02/FundMe.sol\":888:903  convertEthToUsd */\n      tag_41\n        /* \"day02/FundMe.sol\":888:914  convertEthToUsd(msg.value) */\n      jump\t// in\n    tag_72:\n        /* \"day02/FundMe.sol\":875:884  MIN_VALUE */\n      sload(0x03)\n        /* \"day02/FundMe.sol\":875:914  MIN_VALUE <= convertEthToUsd(msg.value) */\n      gt\n      iszero\n        /* \"day02/FundMe.sol\":867:933  require(MIN_VALUE <= convertEthToUsd(msg.value), \"Fund more ETH!\") */\n      tag_73\n      jumpi\n      mload(0x40)\n      0x08c379a000000000000000000000000000000000000000000000000000000000\n      dup2\n      mstore\n      0x04\n      add\n      tag_74\n      swap1\n      tag_75\n      jump\t// in\n    tag_74:\n      mload(0x40)\n      dup1\n      swap2\n      sub\n      swap1\n      revert\n    tag_73:\n        /* \"day02/FundMe.sol\":973:982  msg.value */\n      callvalue\n        /* \"day02/FundMe.sol\":943:958  fundersToAmount */\n      0x02\n        /* \"day02/FundMe.sol\":943:970  fundersToAmount[msg.sender] */\n      0x00\n        /* \"day02/FundMe.sol\":959:969  msg.sender */\n      caller\n        /* \"day02/FundMe.sol\":943:970  fundersToAmount[msg.sender] */\n      0xffffffffffffffffffffffffffffffffffffffff\n      and\n      0xffffffffffffffffffffffffffffffffffffffff\n      and\n      dup2\n      mstore\n      0x20\n      add\n      swap1\n      dup2\n      mstore\n      0x20\n      add\n      0x00\n      keccak256\n        /* \"day02/FundMe.sol\":943:982  fundersToAmount[msg.sender] = msg.value */\n      dup2\n      swap1\n      sstore\n      pop\n        /* \"day02/FundMe.sol\":823:990  function fund() external payable  {... */\n      jump\t// out\n        /* \"day02/FundMe.sol\":996:1343  function getChainlinkDataFeedLatestAnswer() public view returns (int) {... */\n    tag_32:\n        /* \"day02/FundMe.sol\":1061:1064  int */\n      0x00\n        /* \"day02/FundMe.sol\":1151:1164  int256 answer */\n      dup1\n        /* \"day02/FundMe.sol\":1287:1295  dataFeed */\n      0x00\n      dup1\n      sload\n      swap1\n      0x0100\n      exp\n      swap1\n      div\n      0xffffffffffffffffffffffffffffffffffffffff\n      and\n        /* \"day02/FundMe.sol\":1287:1311  dataFeed.latestRoundData */\n      0xffffffffffffffffffffffffffffffffffffffff\n      and\n      0xfeaf968c\n        /* \"day02/FundMe.sol\":1287:1313  dataFeed.latestRoundData() */\n      mload(0x40)\n      dup2\n      0xffffffff\n      and\n      0xe0\n      shl\n      dup2\n      mstore\n      0x04\n      add\n      0xa0\n      mload(0x40)\n      dup1\n      dup4\n      sub\n      dup2\n      dup7\n      gas\n      staticcall\n      iszero\n      dup1\n      iszero\n      tag_78\n      jumpi\n      returndatasize\n      0x00\n      dup1\n      returndatacopy\n      revert(0x00, returndatasize)\n    tag_78:\n      pop\n      pop\n      pop\n      pop\n      mload(0x40)\n      returndatasize\n      not(0x1f)\n      0x1f\n      dup3\n      add\n      and\n      dup3\n      add\n      dup1\n      0x40\n      mstore\n      pop\n      dup2\n      add\n      swap1\n      tag_79\n      swap2\n      swap1\n      tag_80\n      jump\t// in\n    tag_79:\n        /* \"day02/FundMe.sol\":1103:1313  (... */\n      pop\n      pop\n      pop\n      swap2\n      pop\n      pop\n        /* \"day02/FundMe.sol\":1330:1336  answer */\n      dup1\n        /* \"day02/FundMe.sol\":1323:1336  return answer */\n      swap2\n      pop\n      pop\n        /* \"day02/FundMe.sol\":996:1343  function getChainlinkDataFeedLatestAnswer() public view returns (int) {... */\n      swap1\n      jump\t// out\n        /* \"day02/FundMe.sol\":1561:1722  function transferOwnership(address newOwner) public  {... */\n    tag_38:\n        /* \"day02/FundMe.sol\":1646:1651  owner */\n      0x01\n      0x00\n      swap1\n      sload\n      swap1\n      0x0100\n      exp\n      swap1\n      div\n      0xffffffffffffffffffffffffffffffffffffffff\n      and\n        /* \"day02/FundMe.sol\":1632:1651  msg.sender == owner */\n      0xffffffffffffffffffffffffffffffffffffffff\n      and\n        /* \"day02/FundMe.sol\":1632:1642  msg.sender */\n      caller\n        /* \"day02/FundMe.sol\":1632:1651  msg.sender == owner */\n      0xffffffffffffffffffffffffffffffffffffffff\n      and\n      eq\n        /* \"day02/FundMe.sol\":1624:1689  require(msg.sender == owner,\"Only owner can transfer ownership!\") */\n      tag_82\n      jumpi\n      mload(0x40)\n      0x08c379a000000000000000000000000000000000000000000000000000000000\n      dup2\n      mstore\n      0x04\n      add\n      tag_83\n      swap1\n      tag_84\n      jump\t// in\n    tag_83:\n      mload(0x40)\n      dup1\n      swap2\n      sub\n      swap1\n      revert\n    tag_82:\n        /* \"day02/FundMe.sol\":1707:1715  newOwner */\n      dup1\n        /* \"day02/FundMe.sol\":1699:1704  owner */\n      0x01\n      0x00\n        /* \"day02/FundMe.sol\":1699:1715  owner = newOwner */\n      0x0100\n      exp\n      dup2\n      sload\n      dup2\n      0xffffffffffffffffffffffffffffffffffffffff\n      mul\n      not\n      and\n      swap1\n      dup4\n      0xffffffffffffffffffffffffffffffffffffffff\n      and\n      mul\n      or\n      swap1\n      sstore\n      pop\n        /* \"day02/FundMe.sol\":1561:1722  function transferOwnership(address newOwner) public  {... */\n      pop\n      jump\t// out\n        /* \"day02/FundMe.sol\":1349:1555  function convertEthToUsd(uint256 ethAmount) internal view returns (uint256) {... */\n    tag_41:\n        /* \"day02/FundMe.sol\":1416:1423  uint256 */\n      0x00\n        /* \"day02/FundMe.sol\":1435:1451  uint256 ethPrice */\n      dup1\n        /* \"day02/FundMe.sol\":1462:1496  getChainlinkDataFeedLatestAnswer() */\n      tag_86\n        /* \"day02/FundMe.sol\":1462:1494  getChainlinkDataFeedLatestAnswer */\n      tag_32\n        /* \"day02/FundMe.sol\":1462:1496  getChainlinkDataFeedLatestAnswer() */\n      jump\t// in\n    tag_86:\n        /* \"day02/FundMe.sol\":1435:1497  uint256 ethPrice = uint256(getChainlinkDataFeedLatestAnswer()) */\n      swap1\n      pop\n        /* \"day02/FundMe.sol\":1540:1547  10 ** 8 */\n      0x05f5e100\n        /* \"day02/FundMe.sol\":1527:1535  ethPrice */\n      dup2\n        /* \"day02/FundMe.sol\":1515:1524  ethAmount */\n      dup5\n        /* \"day02/FundMe.sol\":1515:1535  ethAmount * ethPrice */\n      tag_87\n      swap2\n      swap1\n      tag_88\n      jump\t// in\n    tag_87:\n        /* \"day02/FundMe.sol\":1514:1548  (ethAmount * ethPrice) / (10 ** 8) */\n      tag_89\n      swap2\n      swap1\n      tag_90\n      jump\t// in\n    tag_89:\n        /* \"day02/FundMe.sol\":1507:1548  return (ethAmount * ethPrice) / (10 ** 8) */\n      swap2\n      pop\n      pop\n        /* \"day02/FundMe.sol\":1349:1555  function convertEthToUsd(uint256 ethAmount) internal view returns (uint256) {... */\n      swap2\n      swap1\n      pop\n      jump\t// out\n        /* \"#utility.yul\":7:133   */\n    tag_91:\n        /* \"#utility.yul\":44:51   */\n      0x00\n        /* \"#utility.yul\":84:126   */\n      0xffffffffffffffffffffffffffffffffffffffff\n        /* \"#utility.yul\":77:82   */\n      dup3\n        /* \"#utility.yul\":73:127   */\n      and\n        /* \"#utility.yul\":62:127   */\n      swap1\n      pop\n        /* \"#utility.yul\":7:133   */\n      swap2\n      swap1\n      pop\n      jump\t// out\n        /* \"#utility.yul\":139:235   */\n    tag_92:\n        /* \"#utility.yul\":176:183   */\n      0x00\n        /* \"#utility.yul\":205:229   */\n      tag_135\n        /* \"#utility.yul\":223:228   */\n      dup3\n        /* \"#utility.yul\":205:229   */\n      tag_91\n      jump\t// in\n    tag_135:\n        /* \"#utility.yul\":194:229   */\n      swap1\n      pop\n        /* \"#utility.yul\":139:235   */\n      swap2\n      swap1\n      pop\n      jump\t// out\n        /* \"#utility.yul\":241:359   */\n    tag_93:\n        /* \"#utility.yul\":328:352   */\n      tag_137\n        /* \"#utility.yul\":346:351   */\n      dup2\n        /* \"#utility.yul\":328:352   */\n      tag_92\n      jump\t// in\n    tag_137:\n        /* \"#utility.yul\":323:326   */\n      dup3\n        /* \"#utility.yul\":316:353   */\n      mstore\n        /* \"#utility.yul\":241:359   */\n      pop\n      pop\n      jump\t// out\n        /* \"#utility.yul\":365:587   */\n    tag_20:\n        /* \"#utility.yul\":458:462   */\n      0x00\n        /* \"#utility.yul\":496:498   */\n      0x20\n        /* \"#utility.yul\":485:494   */\n      dup3\n        /* \"#utility.yul\":481:499   */\n      add\n        /* \"#utility.yul\":473:499   */\n      swap1\n      pop\n        /* \"#utility.yul\":509:580   */\n      tag_139\n        /* \"#utility.yul\":577:578   */\n      0x00\n        /* \"#utility.yul\":566:575   */\n      dup4\n        /* \"#utility.yul\":562:579   */\n      add\n        /* \"#utility.yul\":553:559   */\n      dup5\n        /* \"#utility.yul\":509:580   */\n      tag_93\n      jump\t// in\n    tag_139:\n        /* \"#utility.yul\":365:587   */\n      swap3\n      swap2\n      pop\n      pop\n      jump\t// out\n        /* \"#utility.yul\":674:791   */\n    tag_95:\n        /* \"#utility.yul\":783:784   */\n      0x00\n        /* \"#utility.yul\":780:781   */\n      dup1\n        /* \"#utility.yul\":773:785   */\n      revert\n        /* \"#utility.yul\":920:1042   */\n    tag_97:\n        /* \"#utility.yul\":993:1017   */\n      tag_144\n        /* \"#utility.yul\":1011:1016   */\n      dup2\n        /* \"#utility.yul\":993:1017   */\n      tag_92\n      jump\t// in\n    tag_144:\n        /* \"#utility.yul\":986:991   */\n      dup2\n        /* \"#utility.yul\":983:1018   */\n      eq\n        /* \"#utility.yul\":973:1036   */\n      tag_145\n      jumpi\n        /* \"#utility.yul\":1032:1033   */\n      0x00\n        /* \"#utility.yul\":1029:1030   */\n      dup1\n        /* \"#utility.yul\":1022:1034   */\n      revert\n        /* \"#utility.yul\":973:1036   */\n    tag_145:\n        /* \"#utility.yul\":920:1042   */\n      pop\n      jump\t// out\n        /* \"#utility.yul\":1048:1187   */\n    tag_98:\n        /* \"#utility.yul\":1094:1099   */\n      0x00\n        /* \"#utility.yul\":1132:1138   */\n      dup2\n        /* \"#utility.yul\":1119:1139   */\n      calldataload\n        /* \"#utility.yul\":1110:1139   */\n      swap1\n      pop\n        /* \"#utility.yul\":1148:1181   */\n      tag_147\n        /* \"#utility.yul\":1175:1180   */\n      dup2\n        /* \"#utility.yul\":1148:1181   */\n      tag_97\n      jump\t// in\n    tag_147:\n        /* \"#utility.yul\":1048:1187   */\n      swap3\n      swap2\n      pop\n      pop\n      jump\t// out\n        /* \"#utility.yul\":1193:1522   */\n    tag_24:\n        /* \"#utility.yul\":1252:1258   */\n      0x00\n        /* \"#utility.yul\":1301:1303   */\n      0x20\n        /* \"#utility.yul\":1289:1298   */\n      dup3\n        /* \"#utility.yul\":1280:1287   */\n      dup5\n        /* \"#utility.yul\":1276:1299   */\n      sub\n        /* \"#utility.yul\":1272:1304   */\n      slt\n        /* \"#utility.yul\":1269:1388   */\n      iszero\n      tag_149\n      jumpi\n        /* \"#utility.yul\":1307:1386   */\n      tag_150\n      tag_95\n      jump\t// in\n    tag_150:\n        /* \"#utility.yul\":1269:1388   */\n    tag_149:\n        /* \"#utility.yul\":1427:1428   */\n      0x00\n        /* \"#utility.yul\":1452:1505   */\n      tag_151\n        /* \"#utility.yul\":1497:1504   */\n      dup5\n        /* \"#utility.yul\":1488:1494   */\n      dup3\n        /* \"#utility.yul\":1477:1486   */\n      dup6\n        /* \"#utility.yul\":1473:1495   */\n      add\n        /* \"#utility.yul\":1452:1505   */\n      tag_98\n      jump\t// in\n    tag_151:\n        /* \"#utility.yul\":1442:1505   */\n      swap2\n      pop\n        /* \"#utility.yul\":1398:1515   */\n      pop\n        /* \"#utility.yul\":1193:1522   */\n      swap3\n      swap2\n      pop\n      pop\n      jump\t// out\n        /* \"#utility.yul\":1528:1605   */\n    tag_99:\n        /* \"#utility.yul\":1565:1572   */\n      0x00\n        /* \"#utility.yul\":1594:1599   */\n      dup2\n        /* \"#utility.yul\":1583:1599   */\n      swap1\n      pop\n        /* \"#utility.yul\":1528:1605   */\n      swap2\n      swap1\n      pop\n      jump\t// out\n        /* \"#utility.yul\":1611:1729   */\n    tag_100:\n        /* \"#utility.yul\":1698:1722   */\n      tag_154\n        /* \"#utility.yul\":1716:1721   */\n      dup2\n        /* \"#utility.yul\":1698:1722   */\n      tag_99\n      jump\t// in\n    tag_154:\n        /* \"#utility.yul\":1693:1696   */\n      dup3\n        /* \"#utility.yul\":1686:1723   */\n      mstore\n        /* \"#utility.yul\":1611:1729   */\n      pop\n      pop\n      jump\t// out\n        /* \"#utility.yul\":1735:1957   */\n    tag_27:\n        /* \"#utility.yul\":1828:1832   */\n      0x00\n        /* \"#utility.yul\":1866:1868   */\n      0x20\n        /* \"#utility.yul\":1855:1864   */\n      dup3\n        /* \"#utility.yul\":1851:1869   */\n      add\n        /* \"#utility.yul\":1843:1869   */\n      swap1\n      pop\n        /* \"#utility.yul\":1879:1950   */\n      tag_156\n        /* \"#utility.yul\":1947:1948   */\n      0x00\n        /* \"#utility.yul\":1936:1945   */\n      dup4\n        /* \"#utility.yul\":1932:1949   */\n      add\n        /* \"#utility.yul\":1923:1929   */\n      dup5\n        /* \"#utility.yul\":1879:1950   */\n      tag_100\n      jump\t// in\n    tag_156:\n        /* \"#utility.yul\":1735:1957   */\n      swap3\n      swap2\n      pop\n      pop\n      jump\t// out\n        /* \"#utility.yul\":1963:2039   */\n    tag_101:\n        /* \"#utility.yul\":1999:2006   */\n      0x00\n        /* \"#utility.yul\":2028:2033   */\n      dup2\n        /* \"#utility.yul\":2017:2033   */\n      swap1\n      pop\n        /* \"#utility.yul\":1963:2039   */\n      swap2\n      swap1\n      pop\n      jump\t// out\n        /* \"#utility.yul\":2045:2160   */\n    tag_102:\n        /* \"#utility.yul\":2130:2153   */\n      tag_159\n        /* \"#utility.yul\":2147:2152   */\n      dup2\n        /* \"#utility.yul\":2130:2153   */\n      tag_101\n      jump\t// in\n    tag_159:\n        /* \"#utility.yul\":2125:2128   */\n      dup3\n        /* \"#utility.yul\":2118:2154   */\n      mstore\n        /* \"#utility.yul\":2045:2160   */\n      pop\n      pop\n      jump\t// out\n        /* \"#utility.yul\":2166:2384   */\n    tag_34:\n        /* \"#utility.yul\":2257:2261   */\n      0x00\n        /* \"#utility.yul\":2295:2297   */\n      0x20\n        /* \"#utility.yul\":2284:2293   */\n      dup3\n        /* \"#utility.yul\":2280:2298   */\n      add\n        /* \"#utility.yul\":2272:2298   */\n      swap1\n      pop\n        /* \"#utility.yul\":2308:2377   */\n      tag_161\n        /* \"#utility.yul\":2374:2375   */\n      0x00\n        /* \"#utility.yul\":2363:2372   */\n      dup4\n        /* \"#utility.yul\":2359:2376   */\n      add\n        /* \"#utility.yul\":2350:2356   */\n      dup5\n        /* \"#utility.yul\":2308:2377   */\n      tag_102\n      jump\t// in\n    tag_161:\n        /* \"#utility.yul\":2166:2384   */\n      swap3\n      swap2\n      pop\n      pop\n      jump\t// out\n        /* \"#utility.yul\":2390:2559   */\n    tag_103:\n        /* \"#utility.yul\":2474:2485   */\n      0x00\n        /* \"#utility.yul\":2508:2514   */\n      dup3\n        /* \"#utility.yul\":2503:2506   */\n      dup3\n        /* \"#utility.yul\":2496:2515   */\n      mstore\n        /* \"#utility.yul\":2548:2552   */\n      0x20\n        /* \"#utility.yul\":2543:2546   */\n      dup3\n        /* \"#utility.yul\":2539:2553   */\n      add\n        /* \"#utility.yul\":2524:2553   */\n      swap1\n      pop\n        /* \"#utility.yul\":2390:2559   */\n      swap3\n      swap2\n      pop\n      pop\n      jump\t// out\n        /* \"#utility.yul\":2565:2733   */\n    tag_104:\n        /* \"#utility.yul\":2705:2725   */\n      0x5461726765742069732072656163686564210000000000000000000000000000\n        /* \"#utility.yul\":2701:2702   */\n      0x00\n        /* \"#utility.yul\":2693:2699   */\n      dup3\n        /* \"#utility.yul\":2689:2703   */\n      add\n        /* \"#utility.yul\":2682:2726   */\n      mstore\n        /* \"#utility.yul\":2565:2733   */\n      pop\n      jump\t// out\n        /* \"#utility.yul\":2739:3105   */\n    tag_105:\n        /* \"#utility.yul\":2881:2884   */\n      0x00\n        /* \"#utility.yul\":2902:2969   */\n      tag_165\n        /* \"#utility.yul\":2966:2968   */\n      0x12\n        /* \"#utility.yul\":2961:2964   */\n      dup4\n        /* \"#utility.yul\":2902:2969   */\n      tag_103\n      jump\t// in\n    tag_165:\n        /* \"#utility.yul\":2895:2969   */\n      swap2\n      pop\n        /* \"#utility.yul\":2978:3071   */\n      tag_166\n        /* \"#utility.yul\":3067:3070   */\n      dup3\n        /* \"#utility.yul\":2978:3071   */\n      tag_104\n      jump\t// in\n    tag_166:\n        /* \"#utility.yul\":3096:3098   */\n      0x20\n        /* \"#utility.yul\":3091:3094   */\n      dup3\n        /* \"#utility.yul\":3087:3099   */\n      add\n        /* \"#utility.yul\":3080:3099   */\n      swap1\n      pop\n        /* \"#utility.yul\":2739:3105   */\n      swap2\n      swap1\n      pop\n      jump\t// out\n        /* \"#utility.yul\":3111:3530   */\n    tag_44:\n        /* \"#utility.yul\":3277:3281   */\n      0x00\n        /* \"#utility.yul\":3315:3317   */\n      0x20\n        /* \"#utility.yul\":3304:3313   */\n      dup3\n        /* \"#utility.yul\":3300:3318   */\n      add\n        /* \"#utility.yul\":3292:3318   */\n      swap1\n      pop\n        /* \"#utility.yul\":3364:3373   */\n      dup2\n        /* \"#utility.yul\":3358:3362   */\n      dup2\n        /* \"#utility.yul\":3354:3374   */\n      sub\n        /* \"#utility.yul\":3350:3351   */\n      0x00\n        /* \"#utility.yul\":3339:3348   */\n      dup4\n        /* \"#utility.yul\":3335:3352   */\n      add\n        /* \"#utility.yul\":3328:3375   */\n      mstore\n        /* \"#utility.yul\":3392:3523   */\n      tag_168\n        /* \"#utility.yul\":3518:3522   */\n      dup2\n        /* \"#utility.yul\":3392:3523   */\n      tag_105\n      jump\t// in\n    tag_168:\n        /* \"#utility.yul\":3384:3523   */\n      swap1\n      pop\n        /* \"#utility.yul\":3111:3530   */\n      swap2\n      swap1\n      pop\n      jump\t// out\n        /* \"#utility.yul\":3536:3710   */\n    tag_106:\n        /* \"#utility.yul\":3676:3702   */\n      0x596f752068617665206e6f742066756e64656420796574210000000000000000\n        /* \"#utility.yul\":3672:3673   */\n      0x00\n        /* \"#utility.yul\":3664:3670   */\n      dup3\n        /* \"#utility.yul\":3660:3674   */\n      add\n        /* \"#utility.yul\":3653:3703   */\n      mstore\n        /* \"#utility.yul\":3536:3710   */\n      pop\n      jump\t// out\n        /* \"#utility.yul\":3716:4082   */\n    tag_107:\n        /* \"#utility.yul\":3858:3861   */\n      0x00\n        /* \"#utility.yul\":3879:3946   */\n      tag_171\n        /* \"#utility.yul\":3943:3945   */\n      0x18\n        /* \"#utility.yul\":3938:3941   */\n      dup4\n        /* \"#utility.yul\":3879:3946   */\n      tag_103\n      jump\t// in\n    tag_171:\n        /* \"#utility.yul\":3872:3946   */\n      swap2\n      pop\n        /* \"#utility.yul\":3955:4048   */\n      tag_172\n        /* \"#utility.yul\":4044:4047   */\n      dup3\n        /* \"#utility.yul\":3955:4048   */\n      tag_106\n      jump\t// in\n    tag_172:\n        /* \"#utility.yul\":4073:4075   */\n      0x20\n        /* \"#utility.yul\":4068:4071   */\n      dup3\n        /* \"#utility.yul\":4064:4076   */\n      add\n        /* \"#utility.yul\":4057:4076   */\n      swap1\n      pop\n        /* \"#utility.yul\":3716:4082   */\n      swap2\n      swap1\n      pop\n      jump\t// out\n        /* \"#utility.yul\":4088:4507   */\n    tag_47:\n        /* \"#utility.yul\":4254:4258   */\n      0x00\n        /* \"#utility.yul\":4292:4294   */\n      0x20\n        /* \"#utility.yul\":4281:4290   */\n      dup3\n        /* \"#utility.yul\":4277:4295   */\n      add\n        /* \"#utility.yul\":4269:4295   */\n      swap1\n      pop\n        /* \"#utility.yul\":4341:4350   */\n      dup2\n        /* \"#utility.yul\":4335:4339   */\n      dup2\n        /* \"#utility.yul\":4331:4351   */\n      sub\n        /* \"#utility.yul\":4327:4328   */\n      0x00\n        /* \"#utility.yul\":4316:4325   */\n      dup4\n        /* \"#utility.yul\":4312:4329   */\n      add\n        /* \"#utility.yul\":4305:4352   */\n      mstore\n        /* \"#utility.yul\":4369:4500   */\n      tag_174\n        /* \"#utility.yul\":4495:4499   */\n      dup2\n        /* \"#utility.yul\":4369:4500   */\n      tag_107\n      jump\t// in\n    tag_174:\n        /* \"#utility.yul\":4361:4500   */\n      swap1\n      pop\n        /* \"#utility.yul\":4088:4507   */\n      swap2\n      swap1\n      pop\n      jump\t// out\n        /* \"#utility.yul\":4513:4660   */\n    tag_108:\n        /* \"#utility.yul\":4614:4625   */\n      0x00\n        /* \"#utility.yul\":4651:4654   */\n      dup2\n        /* \"#utility.yul\":4636:4654   */\n      swap1\n      pop\n        /* \"#utility.yul\":4513:4660   */\n      swap3\n      swap2\n      pop\n      pop\n      jump\t// out\n        /* \"#utility.yul\":4666:4780   */\n    tag_109:\n      pop\n      jump\t// out\n        /* \"#utility.yul\":4786:5184   */\n    tag_110:\n        /* \"#utility.yul\":4945:4948   */\n      0x00\n        /* \"#utility.yul\":4966:5049   */\n      tag_178\n        /* \"#utility.yul\":5047:5048   */\n      0x00\n        /* \"#utility.yul\":5042:5045   */\n      dup4\n        /* \"#utility.yul\":4966:5049   */\n      tag_108\n      jump\t// in\n    tag_178:\n        /* \"#utility.yul\":4959:5049   */\n      swap2\n      pop\n        /* \"#utility.yul\":5058:5151   */\n      tag_179\n        /* \"#utility.yul\":5147:5150   */\n      dup3\n        /* \"#utility.yul\":5058:5151   */\n      tag_109\n      jump\t// in\n    tag_179:\n        /* \"#utility.yul\":5176:5177   */\n      0x00\n        /* \"#utility.yul\":5171:5174   */\n      dup3\n        /* \"#utility.yul\":5167:5178   */\n      add\n        /* \"#utility.yul\":5160:5178   */\n      swap1\n      pop\n        /* \"#utility.yul\":4786:5184   */\n      swap2\n      swap1\n      pop\n      jump\t// out\n        /* \"#utility.yul\":5190:5569   */\n    tag_49:\n        /* \"#utility.yul\":5374:5377   */\n      0x00\n        /* \"#utility.yul\":5396:5543   */\n      tag_181\n        /* \"#utility.yul\":5539:5542   */\n      dup3\n        /* \"#utility.yul\":5396:5543   */\n      tag_110\n      jump\t// in\n    tag_181:\n        /* \"#utility.yul\":5389:5543   */\n      swap2\n      pop\n        /* \"#utility.yul\":5560:5563   */\n      dup2\n        /* \"#utility.yul\":5553:5563   */\n      swap1\n      pop\n        /* \"#utility.yul\":5190:5569   */\n      swap2\n      swap1\n      pop\n      jump\t// out\n        /* \"#utility.yul\":5575:5738   */\n    tag_111:\n        /* \"#utility.yul\":5715:5730   */\n      0x726566756e64206572726f722100000000000000000000000000000000000000\n        /* \"#utility.yul\":5711:5712   */\n      0x00\n        /* \"#utility.yul\":5703:5709   */\n      dup3\n        /* \"#utility.yul\":5699:5713   */\n      add\n        /* \"#utility.yul\":5692:5731   */\n      mstore\n        /* \"#utility.yul\":5575:5738   */\n      pop\n      jump\t// out\n        /* \"#utility.yul\":5744:6110   */\n    tag_112:\n        /* \"#utility.yul\":5886:5889   */\n      0x00\n        /* \"#utility.yul\":5907:5974   */\n      tag_184\n        /* \"#utility.yul\":5971:5973   */\n      0x0d\n        /* \"#utility.yul\":5966:5969   */\n      dup4\n        /* \"#utility.yul\":5907:5974   */\n      tag_103\n      jump\t// in\n    tag_184:\n        /* \"#utility.yul\":5900:5974   */\n      swap2\n      pop\n        /* \"#utility.yul\":5983:6076   */\n      tag_185\n        /* \"#utility.yul\":6072:6075   */\n      dup3\n        /* \"#utility.yul\":5983:6076   */\n      tag_111\n      jump\t// in\n    tag_185:\n        /* \"#utility.yul\":6101:6103   */\n      0x20\n        /* \"#utility.yul\":6096:6099   */\n      dup3\n        /* \"#utility.yul\":6092:6104   */\n      add\n        /* \"#utility.yul\":6085:6104   */\n      swap1\n      pop\n        /* \"#utility.yul\":5744:6110   */\n      swap2\n      swap1\n      pop\n      jump\t// out\n        /* \"#utility.yul\":6116:6535   */\n    tag_55:\n        /* \"#utility.yul\":6282:6286   */\n      0x00\n        /* \"#utility.yul\":6320:6322   */\n      0x20\n        /* \"#utility.yul\":6309:6318   */\n      dup3\n        /* \"#utility.yul\":6305:6323   */\n      add\n        /* \"#utility.yul\":6297:6323   */\n      swap1\n      pop\n        /* \"#utility.yul\":6369:6378   */\n      dup2\n        /* \"#utility.yul\":6363:6367   */\n      dup2\n        /* \"#utility.yul\":6359:6379   */\n      sub\n        /* \"#utility.yul\":6355:6356   */\n      0x00\n        /* \"#utility.yul\":6344:6353   */\n      dup4\n        /* \"#utility.yul\":6340:6357   */\n      add\n        /* \"#utility.yul\":6333:6380   */\n      mstore\n        /* \"#utility.yul\":6397:6528   */\n      tag_187\n        /* \"#utility.yul\":6523:6527   */\n      dup2\n        /* \"#utility.yul\":6397:6528   */\n      tag_112\n      jump\t// in\n    tag_187:\n        /* \"#utility.yul\":6389:6528   */\n      swap1\n      pop\n        /* \"#utility.yul\":6116:6535   */\n      swap2\n      swap1\n      pop\n      jump\t// out\n        /* \"#utility.yul\":6541:6710   */\n    tag_113:\n        /* \"#utility.yul\":6681:6702   */\n      0x546172676574206e6f7420726561636865642100000000000000000000000000\n        /* \"#utility.yul\":6677:6678   */\n      0x00\n        /* \"#utility.yul\":6669:6675   */\n      dup3\n        /* \"#utility.yul\":6665:6679   */\n      add\n        /* \"#utility.yul\":6658:6703   */\n      mstore\n        /* \"#utility.yul\":6541:6710   */\n      pop\n      jump\t// out\n        /* \"#utility.yul\":6716:7082   */\n    tag_114:\n        /* \"#utility.yul\":6858:6861   */\n      0x00\n        /* \"#utility.yul\":6879:6946   */\n      tag_190\n        /* \"#utility.yul\":6943:6945   */\n      0x13\n        /* \"#utility.yul\":6938:6941   */\n      dup4\n        /* \"#utility.yul\":6879:6946   */\n      tag_103\n      jump\t// in\n    tag_190:\n        /* \"#utility.yul\":6872:6946   */\n      swap2\n      pop\n        /* \"#utility.yul\":6955:7048   */\n      tag_191\n        /* \"#utility.yul\":7044:7047   */\n      dup3\n        /* \"#utility.yul\":6955:7048   */\n      tag_113\n      jump\t// in\n    tag_191:\n        /* \"#utility.yul\":7073:7075   */\n      0x20\n        /* \"#utility.yul\":7068:7071   */\n      dup3\n        /* \"#utility.yul\":7064:7076   */\n      add\n        /* \"#utility.yul\":7057:7076   */\n      swap1\n      pop\n        /* \"#utility.yul\":6716:7082   */\n      swap2\n      swap1\n      pop\n      jump\t// out\n        /* \"#utility.yul\":7088:7507   */\n    tag_60:\n        /* \"#utility.yul\":7254:7258   */\n      0x00\n        /* \"#utility.yul\":7292:7294   */\n      0x20\n        /* \"#utility.yul\":7281:7290   */\n      dup3\n        /* \"#utility.yul\":7277:7295   */\n      add\n        /* \"#utility.yul\":7269:7295   */\n      swap1\n      pop\n        /* \"#utility.yul\":7341:7350   */\n      dup2\n        /* \"#utility.yul\":7335:7339   */\n      dup2\n        /* \"#utility.yul\":7331:7351   */\n      sub\n        /* \"#utility.yul\":7327:7328   */\n      0x00\n        /* \"#utility.yul\":7316:7325   */\n      dup4\n        /* \"#utility.yul\":7312:7329   */\n      add\n        /* \"#utility.yul\":7305:7352   */\n      mstore\n        /* \"#utility.yul\":7369:7500   */\n      tag_193\n        /* \"#utility.yul\":7495:7499   */\n      dup2\n        /* \"#utility.yul\":7369:7500   */\n      tag_114\n      jump\t// in\n    tag_193:\n        /* \"#utility.yul\":7361:7500   */\n      swap1\n      pop\n        /* \"#utility.yul\":7088:7507   */\n      swap2\n      swap1\n      pop\n      jump\t// out\n        /* \"#utility.yul\":7513:7683   */\n    tag_115:\n        /* \"#utility.yul\":7653:7675   */\n      0x4f6e6c79204f776e65722063616e2066756e6421000000000000000000000000\n        /* \"#utility.yul\":7649:7650   */\n      0x00\n        /* \"#utility.yul\":7641:7647   */\n      dup3\n        /* \"#utility.yul\":7637:7651   */\n      add\n        /* \"#utility.yul\":7630:7676   */\n      mstore\n        /* \"#utility.yul\":7513:7683   */\n      pop\n      jump\t// out\n        /* \"#utility.yul\":7689:8055   */\n    tag_116:\n        /* \"#utility.yul\":7831:7834   */\n      0x00\n        /* \"#utility.yul\":7852:7919   */\n      tag_196\n        /* \"#utility.yul\":7916:7918   */\n      0x14\n        /* \"#utility.yul\":7911:7914   */\n      dup4\n        /* \"#utility.yul\":7852:7919   */\n      tag_103\n      jump\t// in\n    tag_196:\n        /* \"#utility.yul\":7845:7919   */\n      swap2\n      pop\n        /* \"#utility.yul\":7928:8021   */\n      tag_197\n        /* \"#utility.yul\":8017:8020   */\n      dup3\n        /* \"#utility.yul\":7928:8021   */\n      tag_115\n      jump\t// in\n    tag_197:\n        /* \"#utility.yul\":8046:8048   */\n      0x20\n        /* \"#utility.yul\":8041:8044   */\n      dup3\n        /* \"#utility.yul\":8037:8049   */\n      add\n        /* \"#utility.yul\":8030:8049   */\n      swap1\n      pop\n        /* \"#utility.yul\":7689:8055   */\n      swap2\n      swap1\n      pop\n      jump\t// out\n        /* \"#utility.yul\":8061:8480   */\n    tag_63:\n        /* \"#utility.yul\":8227:8231   */\n      0x00\n        /* \"#utility.yul\":8265:8267   */\n      0x20\n        /* \"#utility.yul\":8254:8263   */\n      dup3\n        /* \"#utility.yul\":8250:8268   */\n      add\n        /* \"#utility.yul\":8242:8268   */\n      swap1\n      pop\n        /* \"#utility.yul\":8314:8323   */\n      dup2\n        /* \"#utility.yul\":8308:8312   */\n      dup2\n        /* \"#utility.yul\":8304:8324   */\n      sub\n        /* \"#utility.yul\":8300:8301   */\n      0x00\n        /* \"#utility.yul\":8289:8298   */\n      dup4\n        /* \"#utility.yul\":8285:8302   */\n      add\n        /* \"#utility.yul\":8278:8325   */\n      mstore\n        /* \"#utility.yul\":8342:8473   */\n      tag_199\n        /* \"#utility.yul\":8468:8472   */\n      dup2\n        /* \"#utility.yul\":8342:8473   */\n      tag_116\n      jump\t// in\n    tag_199:\n        /* \"#utility.yul\":8334:8473   */\n      swap1\n      pop\n        /* \"#utility.yul\":8061:8480   */\n      swap2\n      swap1\n      pop\n      jump\t// out\n        /* \"#utility.yul\":8486:8647   */\n    tag_117:\n        /* \"#utility.yul\":8626:8639   */\n      0x63616c6c206572726f7221000000000000000000000000000000000000000000\n        /* \"#utility.yul\":8622:8623   */\n      0x00\n        /* \"#utility.yul\":8614:8620   */\n      dup3\n        /* \"#utility.yul\":8610:8624   */\n      add\n        /* \"#utility.yul\":8603:8640   */\n      mstore\n        /* \"#utility.yul\":8486:8647   */\n      pop\n      jump\t// out\n        /* \"#utility.yul\":8653:9019   */\n    tag_118:\n        /* \"#utility.yul\":8795:8798   */\n      0x00\n        /* \"#utility.yul\":8816:8883   */\n      tag_202\n        /* \"#utility.yul\":8880:8882   */\n      0x0b\n        /* \"#utility.yul\":8875:8878   */\n      dup4\n        /* \"#utility.yul\":8816:8883   */\n      tag_103\n      jump\t// in\n    tag_202:\n        /* \"#utility.yul\":8809:8883   */\n      swap2\n      pop\n        /* \"#utility.yul\":8892:8985   */\n      tag_203\n        /* \"#utility.yul\":8981:8984   */\n      dup3\n        /* \"#utility.yul\":8892:8985   */\n      tag_117\n      jump\t// in\n    tag_203:\n        /* \"#utility.yul\":9010:9012   */\n      0x20\n        /* \"#utility.yul\":9005:9008   */\n      dup3\n        /* \"#utility.yul\":9001:9013   */\n      add\n        /* \"#utility.yul\":8994:9013   */\n      swap1\n      pop\n        /* \"#utility.yul\":8653:9019   */\n      swap2\n      swap1\n      pop\n      jump\t// out\n        /* \"#utility.yul\":9025:9444   */\n    tag_70:\n        /* \"#utility.yul\":9191:9195   */\n      0x00\n        /* \"#utility.yul\":9229:9231   */\n      0x20\n        /* \"#utility.yul\":9218:9227   */\n      dup3\n        /* \"#utility.yul\":9214:9232   */\n      add\n        /* \"#utility.yul\":9206:9232   */\n      swap1\n      pop\n        /* \"#utility.yul\":9278:9287   */\n      dup2\n        /* \"#utility.yul\":9272:9276   */\n      dup2\n        /* \"#utility.yul\":9268:9288   */\n      sub\n        /* \"#utility.yul\":9264:9265   */\n      0x00\n        /* \"#utility.yul\":9253:9262   */\n      dup4\n        /* \"#utility.yul\":9249:9266   */\n      add\n        /* \"#utility.yul\":9242:9289   */\n      mstore\n        /* \"#utility.yul\":9306:9437   */\n      tag_205\n        /* \"#utility.yul\":9432:9436   */\n      dup2\n        /* \"#utility.yul\":9306:9437   */\n      tag_118\n      jump\t// in\n    tag_205:\n        /* \"#utility.yul\":9298:9437   */\n      swap1\n      pop\n        /* \"#utility.yul\":9025:9444   */\n      swap2\n      swap1\n      pop\n      jump\t// out\n        /* \"#utility.yul\":9450:9614   */\n    tag_119:\n        /* \"#utility.yul\":9590:9606   */\n      0x46756e64206d6f72652045544821000000000000000000000000000000000000\n        /* \"#utility.yul\":9586:9587   */\n      0x00\n        /* \"#utility.yul\":9578:9584   */\n      dup3\n        /* \"#utility.yul\":9574:9588   */\n      add\n        /* \"#utility.yul\":9567:9607   */\n      mstore\n        /* \"#utility.yul\":9450:9614   */\n      pop\n      jump\t// out\n        /* \"#utility.yul\":9620:9986   */\n    tag_120:\n        /* \"#utility.yul\":9762:9765   */\n      0x00\n        /* \"#utility.yul\":9783:9850   */\n      tag_208\n        /* \"#utility.yul\":9847:9849   */\n      0x0e\n        /* \"#utility.yul\":9842:9845   */\n      dup4\n        /* \"#utility.yul\":9783:9850   */\n      tag_103\n      jump\t// in\n    tag_208:\n        /* \"#utility.yul\":9776:9850   */\n      swap2\n      pop\n        /* \"#utility.yul\":9859:9952   */\n      tag_209\n        /* \"#utility.yul\":9948:9951   */\n      dup3\n        /* \"#utility.yul\":9859:9952   */\n      tag_119\n      jump\t// in\n    tag_209:\n        /* \"#utility.yul\":9977:9979   */\n      0x20\n        /* \"#utility.yul\":9972:9975   */\n      dup3\n        /* \"#utility.yul\":9968:9980   */\n      add\n        /* \"#utility.yul\":9961:9980   */\n      swap1\n      pop\n        /* \"#utility.yul\":9620:9986   */\n      swap2\n      swap1\n      pop\n      jump\t// out\n        /* \"#utility.yul\":9992:10411   */\n    tag_75:\n        /* \"#utility.yul\":10158:10162   */\n      0x00\n        /* \"#utility.yul\":10196:10198   */\n      0x20\n        /* \"#utility.yul\":10185:10194   */\n      dup3\n        /* \"#utility.yul\":10181:10199   */\n      add\n        /* \"#utility.yul\":10173:10199   */\n      swap1\n      pop\n        /* \"#utility.yul\":10245:10254   */\n      dup2\n        /* \"#utility.yul\":10239:10243   */\n      dup2\n        /* \"#utility.yul\":10235:10255   */\n      sub\n        /* \"#utility.yul\":10231:10232   */\n      0x00\n        /* \"#utility.yul\":10220:10229   */\n      dup4\n        /* \"#utility.yul\":10216:10233   */\n      add\n        /* \"#utility.yul\":10209:10256   */\n      mstore\n        /* \"#utility.yul\":10273:10404   */\n      tag_211\n        /* \"#utility.yul\":10399:10403   */\n      dup2\n        /* \"#utility.yul\":10273:10404   */\n      tag_120\n      jump\t// in\n    tag_211:\n        /* \"#utility.yul\":10265:10404   */\n      swap1\n      pop\n        /* \"#utility.yul\":9992:10411   */\n      swap2\n      swap1\n      pop\n      jump\t// out\n        /* \"#utility.yul\":10417:10522   */\n    tag_121:\n        /* \"#utility.yul\":10453:10460   */\n      0x00\n        /* \"#utility.yul\":10493:10515   */\n      0xffffffffffffffffffff\n        /* \"#utility.yul\":10486:10491   */\n      dup3\n        /* \"#utility.yul\":10482:10516   */\n      and\n        /* \"#utility.yul\":10471:10516   */\n      swap1\n      pop\n        /* \"#utility.yul\":10417:10522   */\n      swap2\n      swap1\n      pop\n      jump\t// out\n        /* \"#utility.yul\":10528:10648   */\n    tag_122:\n        /* \"#utility.yul\":10600:10623   */\n      tag_214\n        /* \"#utility.yul\":10617:10622   */\n      dup2\n        /* \"#utility.yul\":10600:10623   */\n      tag_121\n      jump\t// in\n    tag_214:\n        /* \"#utility.yul\":10593:10598   */\n      dup2\n        /* \"#utility.yul\":10590:10624   */\n      eq\n        /* \"#utility.yul\":10580:10642   */\n      tag_215\n      jumpi\n        /* \"#utility.yul\":10638:10639   */\n      0x00\n        /* \"#utility.yul\":10635:10636   */\n      dup1\n        /* \"#utility.yul\":10628:10640   */\n      revert\n        /* \"#utility.yul\":10580:10642   */\n    tag_215:\n        /* \"#utility.yul\":10528:10648   */\n      pop\n      jump\t// out\n        /* \"#utility.yul\":10654:10795   */\n    tag_123:\n        /* \"#utility.yul\":10710:10715   */\n      0x00\n        /* \"#utility.yul\":10741:10747   */\n      dup2\n        /* \"#utility.yul\":10735:10748   */\n      mload\n        /* \"#utility.yul\":10726:10748   */\n      swap1\n      pop\n        /* \"#utility.yul\":10757:10789   */\n      tag_217\n        /* \"#utility.yul\":10783:10788   */\n      dup2\n        /* \"#utility.yul\":10757:10789   */\n      tag_122\n      jump\t// in\n    tag_217:\n        /* \"#utility.yul\":10654:10795   */\n      swap3\n      swap2\n      pop\n      pop\n      jump\t// out\n        /* \"#utility.yul\":10801:10921   */\n    tag_124:\n        /* \"#utility.yul\":10873:10896   */\n      tag_219\n        /* \"#utility.yul\":10890:10895   */\n      dup2\n        /* \"#utility.yul\":10873:10896   */\n      tag_101\n      jump\t// in\n    tag_219:\n        /* \"#utility.yul\":10866:10871   */\n      dup2\n        /* \"#utility.yul\":10863:10897   */\n      eq\n        /* \"#utility.yul\":10853:10915   */\n      tag_220\n      jumpi\n        /* \"#utility.yul\":10911:10912   */\n      0x00\n        /* \"#utility.yul\":10908:10909   */\n      dup1\n        /* \"#utility.yul\":10901:10913   */\n      revert\n        /* \"#utility.yul\":10853:10915   */\n    tag_220:\n        /* \"#utility.yul\":10801:10921   */\n      pop\n      jump\t// out\n        /* \"#utility.yul\":10927:11068   */\n    tag_125:\n        /* \"#utility.yul\":10983:10988   */\n      0x00\n        /* \"#utility.yul\":11014:11020   */\n      dup2\n        /* \"#utility.yul\":11008:11021   */\n      mload\n        /* \"#utility.yul\":10999:11021   */\n      swap1\n      pop\n        /* \"#utility.yul\":11030:11062   */\n      tag_222\n        /* \"#utility.yul\":11056:11061   */\n      dup2\n        /* \"#utility.yul\":11030:11062   */\n      tag_124\n      jump\t// in\n    tag_222:\n        /* \"#utility.yul\":10927:11068   */\n      swap3\n      swap2\n      pop\n      pop\n      jump\t// out\n        /* \"#utility.yul\":11074:11196   */\n    tag_126:\n        /* \"#utility.yul\":11147:11171   */\n      tag_224\n        /* \"#utility.yul\":11165:11170   */\n      dup2\n        /* \"#utility.yul\":11147:11171   */\n      tag_99\n      jump\t// in\n    tag_224:\n        /* \"#utility.yul\":11140:11145   */\n      dup2\n        /* \"#utility.yul\":11137:11172   */\n      eq\n        /* \"#utility.yul\":11127:11190   */\n      tag_225\n      jumpi\n        /* \"#utility.yul\":11186:11187   */\n      0x00\n        /* \"#utility.yul\":11183:11184   */\n      dup1\n        /* \"#utility.yul\":11176:11188   */\n      revert\n        /* \"#utility.yul\":11127:11190   */\n    tag_225:\n        /* \"#utility.yul\":11074:11196   */\n      pop\n      jump\t// out\n        /* \"#utility.yul\":11202:11345   */\n    tag_127:\n        /* \"#utility.yul\":11259:11264   */\n      0x00\n        /* \"#utility.yul\":11290:11296   */\n      dup2\n        /* \"#utility.yul\":11284:11297   */\n      mload\n        /* \"#utility.yul\":11275:11297   */\n      swap1\n      pop\n        /* \"#utility.yul\":11306:11339   */\n      tag_227\n        /* \"#utility.yul\":11333:11338   */\n      dup2\n        /* \"#utility.yul\":11306:11339   */\n      tag_126\n      jump\t// in\n    tag_227:\n        /* \"#utility.yul\":11202:11345   */\n      swap3\n      swap2\n      pop\n      pop\n      jump\t// out\n        /* \"#utility.yul\":11351:12322   */\n    tag_80:\n        /* \"#utility.yul\":11454:11460   */\n      0x00\n        /* \"#utility.yul\":11462:11468   */\n      dup1\n        /* \"#utility.yul\":11470:11476   */\n      0x00\n        /* \"#utility.yul\":11478:11484   */\n      dup1\n        /* \"#utility.yul\":11486:11492   */\n      0x00\n        /* \"#utility.yul\":11535:11538   */\n      0xa0\n        /* \"#utility.yul\":11523:11532   */\n      dup7\n        /* \"#utility.yul\":11514:11521   */\n      dup9\n        /* \"#utility.yul\":11510:11533   */\n      sub\n        /* \"#utility.yul\":11506:11539   */\n      slt\n        /* \"#utility.yul\":11503:11623   */\n      iszero\n      tag_229\n      jumpi\n        /* \"#utility.yul\":11542:11621   */\n      tag_230\n      tag_95\n      jump\t// in\n    tag_230:\n        /* \"#utility.yul\":11503:11623   */\n    tag_229:\n        /* \"#utility.yul\":11662:11663   */\n      0x00\n        /* \"#utility.yul\":11687:11750   */\n      tag_231\n        /* \"#utility.yul\":11742:11749   */\n      dup9\n        /* \"#utility.yul\":11733:11739   */\n      dup3\n        /* \"#utility.yul\":11722:11731   */\n      dup10\n        /* \"#utility.yul\":11718:11740   */\n      add\n        /* \"#utility.yul\":11687:11750   */\n      tag_123\n      jump\t// in\n    tag_231:\n        /* \"#utility.yul\":11677:11750   */\n      swap6\n      pop\n        /* \"#utility.yul\":11633:11760   */\n      pop\n        /* \"#utility.yul\":11799:11801   */\n      0x20\n        /* \"#utility.yul\":11825:11888   */\n      tag_232\n        /* \"#utility.yul\":11880:11887   */\n      dup9\n        /* \"#utility.yul\":11871:11877   */\n      dup3\n        /* \"#utility.yul\":11860:11869   */\n      dup10\n        /* \"#utility.yul\":11856:11878   */\n      add\n        /* \"#utility.yul\":11825:11888   */\n      tag_125\n      jump\t// in\n    tag_232:\n        /* \"#utility.yul\":11815:11888   */\n      swap5\n      pop\n        /* \"#utility.yul\":11770:11898   */\n      pop\n        /* \"#utility.yul\":11937:11939   */\n      0x40\n        /* \"#utility.yul\":11963:12027   */\n      tag_233\n        /* \"#utility.yul\":12019:12026   */\n      dup9\n        /* \"#utility.yul\":12010:12016   */\n      dup3\n        /* \"#utility.yul\":11999:12008   */\n      dup10\n        /* \"#utility.yul\":11995:12017   */\n      add\n        /* \"#utility.yul\":11963:12027   */\n      tag_127\n      jump\t// in\n    tag_233:\n        /* \"#utility.yul\":11953:12027   */\n      swap4\n      pop\n        /* \"#utility.yul\":11908:12037   */\n      pop\n        /* \"#utility.yul\":12076:12078   */\n      0x60\n        /* \"#utility.yul\":12102:12166   */\n      tag_234\n        /* \"#utility.yul\":12158:12165   */\n      dup9\n        /* \"#utility.yul\":12149:12155   */\n      dup3\n        /* \"#utility.yul\":12138:12147   */\n      dup10\n        /* \"#utility.yul\":12134:12156   */\n      add\n        /* \"#utility.yul\":12102:12166   */\n      tag_127\n      jump\t// in\n    tag_234:\n        /* \"#utility.yul\":12092:12166   */\n      swap3\n      pop\n        /* \"#utility.yul\":12047:12176   */\n      pop\n        /* \"#utility.yul\":12215:12218   */\n      0x80\n        /* \"#utility.yul\":12242:12305   */\n      tag_235\n        /* \"#utility.yul\":12297:12304   */\n      dup9\n        /* \"#utility.yul\":12288:12294   */\n      dup3\n        /* \"#utility.yul\":12277:12286   */\n      dup10\n        /* \"#utility.yul\":12273:12295   */\n      add\n        /* \"#utility.yul\":12242:12305   */\n      tag_123\n      jump\t// in\n    tag_235:\n        /* \"#utility.yul\":12232:12305   */\n      swap2\n      pop\n        /* \"#utility.yul\":12186:12315   */\n      pop\n        /* \"#utility.yul\":11351:12322   */\n      swap3\n      swap6\n      pop\n      swap3\n      swap6\n      swap1\n      swap4\n      pop\n      jump\t// out\n        /* \"#utility.yul\":12328:12549   */\n    tag_128:\n        /* \"#utility.yul\":12468:12502   */\n      0x4f6e6c79206f776e65722063616e207472616e73666572206f776e6572736869\n        /* \"#utility.yul\":12464:12465   */\n      0x00\n        /* \"#utility.yul\":12456:12462   */\n      dup3\n        /* \"#utility.yul\":12452:12466   */\n      add\n        /* \"#utility.yul\":12445:12503   */\n      mstore\n        /* \"#utility.yul\":12537:12541   */\n      0x7021000000000000000000000000000000000000000000000000000000000000\n        /* \"#utility.yul\":12532:12534   */\n      0x20\n        /* \"#utility.yul\":12524:12530   */\n      dup3\n        /* \"#utility.yul\":12520:12535   */\n      add\n        /* \"#utility.yul\":12513:12542   */\n      mstore\n        /* \"#utility.yul\":12328:12549   */\n      pop\n      jump\t// out\n        /* \"#utility.yul\":12555:12921   */\n    tag_129:\n        /* \"#utility.yul\":12697:12700   */\n      0x00\n        /* \"#utility.yul\":12718:12785   */\n      tag_238\n        /* \"#utility.yul\":12782:12784   */\n      0x22\n        /* \"#utility.yul\":12777:12780   */\n      dup4\n        /* \"#utility.yul\":12718:12785   */\n      tag_103\n      jump\t// in\n    tag_238:\n        /* \"#utility.yul\":12711:12785   */\n      swap2\n      pop\n        /* \"#utility.yul\":12794:12887   */\n      tag_239\n        /* \"#utility.yul\":12883:12886   */\n      dup3\n        /* \"#utility.yul\":12794:12887   */\n      tag_128\n      jump\t// in\n    tag_239:\n        /* \"#utility.yul\":12912:12914   */\n      0x40\n        /* \"#utility.yul\":12907:12910   */\n      dup3\n        /* \"#utility.yul\":12903:12915   */\n      add\n        /* \"#utility.yul\":12896:12915   */\n      swap1\n      pop\n        /* \"#utility.yul\":12555:12921   */\n      swap2\n      swap1\n      pop\n      jump\t// out\n        /* \"#utility.yul\":12927:13346   */\n    tag_84:\n        /* \"#utility.yul\":13093:13097   */\n      0x00\n        /* \"#utility.yul\":13131:13133   */\n      0x20\n        /* \"#utility.yul\":13120:13129   */\n      dup3\n        /* \"#utility.yul\":13116:13134   */\n      add\n        /* \"#utility.yul\":13108:13134   */\n      swap1\n      pop\n        /* \"#utility.yul\":13180:13189   */\n      dup2\n        /* \"#utility.yul\":13174:13178   */\n      dup2\n        /* \"#utility.yul\":13170:13190   */\n      sub\n        /* \"#utility.yul\":13166:13167   */\n      0x00\n        /* \"#utility.yul\":13155:13164   */\n      dup4\n        /* \"#utility.yul\":13151:13168   */\n      add\n        /* \"#utility.yul\":13144:13191   */\n      mstore\n        /* \"#utility.yul\":13208:13339   */\n      tag_241\n        /* \"#utility.yul\":13334:13338   */\n      dup2\n        /* \"#utility.yul\":13208:13339   */\n      tag_129\n      jump\t// in\n    tag_241:\n        /* \"#utility.yul\":13200:13339   */\n      swap1\n      pop\n        /* \"#utility.yul\":12927:13346   */\n      swap2\n      swap1\n      pop\n      jump\t// out\n        /* \"#utility.yul\":13352:13532   */\n    tag_130:\n        /* \"#utility.yul\":13400:13477   */\n      0x4e487b7100000000000000000000000000000000000000000000000000000000\n        /* \"#utility.yul\":13397:13398   */\n      0x00\n        /* \"#utility.yul\":13390:13478   */\n      mstore\n        /* \"#utility.yul\":13497:13501   */\n      0x11\n        /* \"#utility.yul\":13494:13495   */\n      0x04\n        /* \"#utility.yul\":13487:13502   */\n      mstore\n        /* \"#utility.yul\":13521:13525   */\n      0x24\n        /* \"#utility.yul\":13518:13519   */\n      0x00\n        /* \"#utility.yul\":13511:13526   */\n      revert\n        /* \"#utility.yul\":13538:13948   */\n    tag_88:\n        /* \"#utility.yul\":13578:13585   */\n      0x00\n        /* \"#utility.yul\":13601:13621   */\n      tag_244\n        /* \"#utility.yul\":13619:13620   */\n      dup3\n        /* \"#utility.yul\":13601:13621   */\n      tag_99\n      jump\t// in\n    tag_244:\n        /* \"#utility.yul\":13596:13621   */\n      swap2\n      pop\n        /* \"#utility.yul\":13635:13655   */\n      tag_245\n        /* \"#utility.yul\":13653:13654   */\n      dup4\n        /* \"#utility.yul\":13635:13655   */\n      tag_99\n      jump\t// in\n    tag_245:\n        /* \"#utility.yul\":13630:13655   */\n      swap3\n      pop\n        /* \"#utility.yul\":13690:13691   */\n      dup3\n        /* \"#utility.yul\":13687:13688   */\n      dup3\n        /* \"#utility.yul\":13683:13692   */\n      mul\n        /* \"#utility.yul\":13712:13742   */\n      tag_246\n        /* \"#utility.yul\":13730:13741   */\n      dup2\n        /* \"#utility.yul\":13712:13742   */\n      tag_99\n      jump\t// in\n    tag_246:\n        /* \"#utility.yul\":13701:13742   */\n      swap2\n      pop\n        /* \"#utility.yul\":13891:13892   */\n      dup3\n        /* \"#utility.yul\":13882:13889   */\n      dup3\n        /* \"#utility.yul\":13878:13893   */\n      div\n        /* \"#utility.yul\":13875:13876   */\n      dup5\n        /* \"#utility.yul\":13872:13894   */\n      eq\n        /* \"#utility.yul\":13852:13853   */\n      dup4\n        /* \"#utility.yul\":13845:13854   */\n      iszero\n        /* \"#utility.yul\":13825:13908   */\n      or\n        /* \"#utility.yul\":13802:13941   */\n      tag_247\n      jumpi\n        /* \"#utility.yul\":13921:13939   */\n      tag_248\n      tag_130\n      jump\t// in\n    tag_248:\n        /* \"#utility.yul\":13802:13941   */\n    tag_247:\n        /* \"#utility.yul\":13586:13948   */\n      pop\n        /* \"#utility.yul\":13538:13948   */\n      swap3\n      swap2\n      pop\n      pop\n      jump\t// out\n        /* \"#utility.yul\":13954:14134   */\n    tag_131:\n        /* \"#utility.yul\":14002:14079   */\n      0x4e487b7100000000000000000000000000000000000000000000000000000000\n        /* \"#utility.yul\":13999:14000   */\n      0x00\n        /* \"#utility.yul\":13992:14080   */\n      mstore\n        /* \"#utility.yul\":14099:14103   */\n      0x12\n        /* \"#utility.yul\":14096:14097   */\n      0x04\n        /* \"#utility.yul\":14089:14104   */\n      mstore\n        /* \"#utility.yul\":14123:14127   */\n      0x24\n        /* \"#utility.yul\":14120:14121   */\n      0x00\n        /* \"#utility.yul\":14113:14128   */\n      revert\n        /* \"#utility.yul\":14140:14325   */\n    tag_90:\n        /* \"#utility.yul\":14180:14181   */\n      0x00\n        /* \"#utility.yul\":14197:14217   */\n      tag_251\n        /* \"#utility.yul\":14215:14216   */\n      dup3\n        /* \"#utility.yul\":14197:14217   */\n      tag_99\n      jump\t// in\n    tag_251:\n        /* \"#utility.yul\":14192:14217   */\n      swap2\n      pop\n        /* \"#utility.yul\":14231:14251   */\n      tag_252\n        /* \"#utility.yul\":14249:14250   */\n      dup4\n        /* \"#utility.yul\":14231:14251   */\n      tag_99\n      jump\t// in\n    tag_252:\n        /* \"#utility.yul\":14226:14251   */\n      swap3\n      pop\n        /* \"#utility.yul\":14270:14271   */\n      dup3\n        /* \"#utility.yul\":14260:14295   */\n      tag_253\n      jumpi\n        /* \"#utility.yul\":14275:14293   */\n      tag_254\n      tag_131\n      jump\t// in\n    tag_254:\n        /* \"#utility.yul\":14260:14295   */\n    tag_253:\n        /* \"#utility.yul\":14317:14318   */\n      dup3\n        /* \"#utility.yul\":14314:14315   */\n      dup3\n        /* \"#utility.yul\":14310:14319   */\n      div\n        /* \"#utility.yul\":14305:14319   */\n      swap1\n      pop\n        /* \"#utility.yul\":14140:14325   */\n      swap3\n      swap2\n      pop\n      pop\n      jump\t// out\n\n    auxdata: 0xa2646970667358221220ff442fbcf380c177166986d01c5e822d1b7ff110c3bf357756abd7e730850f7364736f6c63430008140033\n}\n",
				"bytecode": {
					"linkReferences": {},
					"object": "608060405268056bc75e2d6310000060035534801561001c575f80fd5b5073694aa1769357215de4fac081bf1f309adc3253065f806101000a81548173ffffffffffffffffffffffffffffffffffffffff021916908373ffffffffffffffffffffffffffffffffffffffff1602179055503360015f6101000a81548173ffffffffffffffffffffffffffffffffffffffff021916908373ffffffffffffffffffffffffffffffffffffffff160217905550610e2c806100bd5f395ff3fe60806040526004361061006f575f3560e01c80639f883a051161004d5780639f883a05146100c9578063b60d428814610105578063bea4dfb51461010f578063f2fde38b146101395761006f565b80630ff0a4df14610073578063829006b3146100895780638da5cb5b1461009f575b5f80fd5b34801561007e575f80fd5b50610087610161565b005b348015610094575f80fd5b5061009d610360565b005b3480156100aa575f80fd5b506100b36104f0565b6040516100c09190610796565b60405180910390f35b3480156100d4575f80fd5b506100ef60048036038101906100ea91906107dd565b610515565b6040516100fc9190610820565b60405180910390f35b61010d61052a565b005b34801561011a575f80fd5b506101236105bb565b6040516101309190610851565b60405180910390f35b348015610144575f80fd5b5061015f600480360381019061015a91906107dd565b610656565b005b680ad78ebc5ac620000061017447610728565b11156101b5576040517f08c379a00000000000000000000000000000000000000000000000000000000081526004016101ac906108c4565b60405180910390fd5b5f60025f3373ffffffffffffffffffffffffffffffffffffffff1673ffffffffffffffffffffffffffffffffffffffff1681526020019081526020015f205403610234576040517f08c379a000000000000000000000000000000000000000000000000000000000815260040161022b9061092c565b60405180910390fd5b5f3373ffffffffffffffffffffffffffffffffffffffff1660025f3373ffffffffffffffffffffffffffffffffffffffff1673ffffffffffffffffffffffffffffffffffffffff1681526020019081526020015f205460405161029690610977565b5f6040518083038185875af1925050503d805f81146102d0576040519150601f19603f3d011682016040523d82523d5f602084013e6102d5565b606091505b5050809150508061031b576040517f08c379a0000000000000000000000000000000000000000000000000000000008152600401610312906109d5565b60405180910390fd5b5f60025f3373ffffffffffffffffffffffffffffffffffffffff1673ffffffffffffffffffffffffffffffffffffffff1681526020019081526020015f208190555050565b680ad78ebc5ac620000061037347610728565b10156103b4576040517f08c379a00000000000000000000000000000000000000000000000000000000081526004016103ab90610a3d565b60405180910390fd5b60015f9054906101000a900473ffffffffffffffffffffffffffffffffffffffff1673ffffffffffffffffffffffffffffffffffffffff163373ffffffffffffffffffffffffffffffffffffffff1614610443576040517f08c379a000000000000000000000000000000000000000000000000000000000815260040161043a90610aa5565b60405180910390fd5b5f3373ffffffffffffffffffffffffffffffffffffffff164760405161046890610977565b5f6040518083038185875af1925050503d805f81146104a2576040519150601f19603f3d011682016040523d82523d5f602084013e6104a7565b606091505b505080915050806104ed576040517f08c379a00000000000000000000000000000000000000000000000000000000081526004016104e490610b0d565b60405180910390fd5b50565b60015f9054906101000a900473ffffffffffffffffffffffffffffffffffffffff1681565b6002602052805f5260405f205f915090505481565b61053334610728565b6003541115610577576040517f08c379a000000000000000000000000000000000000000000000000000000000815260040161056e90610b75565b60405180910390fd5b3460025f3373ffffffffffffffffffffffffffffffffffffffff1673ffffffffffffffffffffffffffffffffffffffff1681526020019081526020015f2081905550565b5f805f8054906101000a900473ffffffffffffffffffffffffffffffffffffffff1673ffffffffffffffffffffffffffffffffffffffff1663feaf968c6040518163ffffffff1660e01b815260040160a060405180830381865afa158015610625573d5f803e3d5ffd5b505050506040513d601f19601f820116820180604052508101906106499190610c26565b5050509150508091505090565b60015f9054906101000a900473ffffffffffffffffffffffffffffffffffffffff1673ffffffffffffffffffffffffffffffffffffffff163373ffffffffffffffffffffffffffffffffffffffff16146106e5576040517f08c379a00000000000000000000000000000000000000000000000000000000081526004016106dc90610d0d565b60405180910390fd5b8060015f6101000a81548173ffffffffffffffffffffffffffffffffffffffff021916908373ffffffffffffffffffffffffffffffffffffffff16021790555050565b5f806107326105bb565b90506305f5e10081846107459190610d58565b61074f9190610dc6565b915050919050565b5f73ffffffffffffffffffffffffffffffffffffffff82169050919050565b5f61078082610757565b9050919050565b61079081610776565b82525050565b5f6020820190506107a95f830184610787565b92915050565b5f80fd5b6107bc81610776565b81146107c6575f80fd5b50565b5f813590506107d7816107b3565b92915050565b5f602082840312156107f2576107f16107af565b5b5f6107ff848285016107c9565b91505092915050565b5f819050919050565b61081a81610808565b82525050565b5f6020820190506108335f830184610811565b92915050565b5f819050919050565b61084b81610839565b82525050565b5f6020820190506108645f830184610842565b92915050565b5f82825260208201905092915050565b7f54617267657420697320726561636865642100000000000000000000000000005f82015250565b5f6108ae60128361086a565b91506108b98261087a565b602082019050919050565b5f6020820190508181035f8301526108db816108a2565b9050919050565b7f596f752068617665206e6f742066756e646564207965742100000000000000005f82015250565b5f61091660188361086a565b9150610921826108e2565b602082019050919050565b5f6020820190508181035f8301526109438161090a565b9050919050565b5f81905092915050565b50565b5f6109625f8361094a565b915061096d82610954565b5f82019050919050565b5f61098182610957565b9150819050919050565b7f726566756e64206572726f7221000000000000000000000000000000000000005f82015250565b5f6109bf600d8361086a565b91506109ca8261098b565b602082019050919050565b5f6020820190508181035f8301526109ec816109b3565b9050919050565b7f546172676574206e6f74207265616368656421000000000000000000000000005f82015250565b5f610a2760138361086a565b9150610a32826109f3565b602082019050919050565b5f6020820190508181035f830152610a5481610a1b565b9050919050565b7f4f6e6c79204f776e65722063616e2066756e64210000000000000000000000005f82015250565b5f610a8f60148361086a565b9150610a9a82610a5b565b602082019050919050565b5f6020820190508181035f830152610abc81610a83565b9050919050565b7f63616c6c206572726f72210000000000000000000000000000000000000000005f82015250565b5f610af7600b8361086a565b9150610b0282610ac3565b602082019050919050565b5f6020820190508181035f830152610b2481610aeb565b9050919050565b7f46756e64206d6f726520455448210000000000000000000000000000000000005f82015250565b5f610b5f600e8361086a565b9150610b6a82610b2b565b602082019050919050565b5f6020820190508181035f830152610b8c81610b53565b9050919050565b5f69ffffffffffffffffffff82169050919050565b610bb181610b93565b8114610bbb575f80fd5b50565b5f81519050610bcc81610ba8565b92915050565b610bdb81610839565b8114610be5575f80fd5b50565b5f81519050610bf681610bd2565b92915050565b610c0581610808565b8114610c0f575f80fd5b50565b5f81519050610c2081610bfc565b92915050565b5f805f805f60a08688031215610c3f57610c3e6107af565b5b5f610c4c88828901610bbe565b9550506020610c5d88828901610be8565b9450506040610c6e88828901610c12565b9350506060610c7f88828901610c12565b9250506080610c9088828901610bbe565b9150509295509295909350565b7f4f6e6c79206f776e65722063616e207472616e73666572206f776e65727368695f8201527f7021000000000000000000000000000000000000000000000000000000000000602082015250565b5f610cf760228361086a565b9150610d0282610c9d565b604082019050919050565b5f6020820190508181035f830152610d2481610ceb565b9050919050565b7f4e487b71000000000000000000000000000000000000000000000000000000005f52601160045260245ffd5b5f610d6282610808565b9150610d6d83610808565b9250828202610d7b81610808565b91508282048414831517610d9257610d91610d2b565b5b5092915050565b7f4e487b71000000000000000000000000000000000000000000000000000000005f52601260045260245ffd5b5f610dd082610808565b9150610ddb83610808565b925082610deb57610dea610d99565b5b82820490509291505056fea2646970667358221220ff442fbcf380c177166986d01c5e822d1b7ff110c3bf357756abd7e730850f7364736f6c63430008140033",
					"opcodes": "PUSH1 0x80 PUSH1 0x40 MSTORE PUSH9 0x56BC75E2D63100000 PUSH1 0x3 SSTORE CALLVALUE DUP1 ISZERO PUSH2 0x1C JUMPI PUSH0 DUP1 REVERT JUMPDEST POP PUSH20 0x694AA1769357215DE4FAC081BF1F309ADC325306 PUSH0 DUP1 PUSH2 0x100 EXP DUP2 SLOAD DUP2 PUSH20 0xFFFFFFFFFFFFFFFFFFFFFFFFFFFFFFFFFFFFFFFF MUL NOT AND SWAP1 DUP4 PUSH20 0xFFFFFFFFFFFFFFFFFFFFFFFFFFFFFFFFFFFFFFFF AND MUL OR SWAP1 SSTORE POP CALLER PUSH1 0x1 PUSH0 PUSH2 0x100 EXP DUP2 SLOAD DUP2 PUSH20 0xFFFFFFFFFFFFFFFFFFFFFFFFFFFFFFFFFFFFFFFF MUL NOT AND SWAP1 DUP4 PUSH20 0xFFFFFFFFFFFFFFFFFFFFFFFFFFFFFFFFFFFFFFFF AND MUL OR SWAP1 SSTORE POP PUSH2 0xE2C DUP1 PUSH2 0xBD PUSH0 CODECOPY PUSH0 RETURN INVALID PUSH1 0x80 PUSH1 0x40 MSTORE PUSH1 0x4 CALLDATASIZE LT PUSH2 0x6F JUMPI PUSH0 CALLDATALOAD PUSH1 0xE0 SHR DUP1 PUSH4 0x9F883A05 GT PUSH2 0x4D JUMPI DUP1 PUSH4 0x9F883A05 EQ PUSH2 0xC9 JUMPI DUP1 PUSH4 0xB60D4288 EQ PUSH2 0x105 JUMPI DUP1 PUSH4 0xBEA4DFB5 EQ PUSH2 0x10F JUMPI DUP1 PUSH4 0xF2FDE38B EQ PUSH2 0x139 JUMPI PUSH2 0x6F JUMP JUMPDEST DUP1 PUSH4 0xFF0A4DF EQ PUSH2 0x73 JUMPI DUP1 PUSH4 0x829006B3 EQ PUSH2 0x89 JUMPI DUP1 PUSH4 0x8DA5CB5B EQ PUSH2 0x9F JUMPI JUMPDEST PUSH0 DUP1 REVERT JUMPDEST CALLVALUE DUP1 ISZERO PUSH2 0x7E JUMPI PUSH0 DUP1 REVERT JUMPDEST POP PUSH2 0x87 PUSH2 0x161 JUMP JUMPDEST STOP JUMPDEST CALLVALUE DUP1 ISZERO PUSH2 0x94 JUMPI PUSH0 DUP1 REVERT JUMPDEST POP PUSH2 0x9D PUSH2 0x360 JUMP JUMPDEST STOP JUMPDEST CALLVALUE DUP1 ISZERO PUSH2 0xAA JUMPI PUSH0 DUP1 REVERT JUMPDEST POP PUSH2 0xB3 PUSH2 0x4F0 JUMP JUMPDEST PUSH1 0x40 MLOAD PUSH2 0xC0 SWAP2 SWAP1 PUSH2 0x796 JUMP JUMPDEST PUSH1 0x40 MLOAD DUP1 SWAP2 SUB SWAP1 RETURN JUMPDEST CALLVALUE DUP1 ISZERO PUSH2 0xD4 JUMPI PUSH0 DUP1 REVERT JUMPDEST POP PUSH2 0xEF PUSH1 0x4 DUP1 CALLDATASIZE SUB DUP2 ADD SWAP1 PUSH2 0xEA SWAP2 SWAP1 PUSH2 0x7DD JUMP JUMPDEST PUSH2 0x515 JUMP JUMPDEST PUSH1 0x40 MLOAD PUSH2 0xFC SWAP2 SWAP1 PUSH2 0x820 JUMP JUMPDEST PUSH1 0x40 MLOAD DUP1 SWAP2 SUB SWAP1 RETURN JUMPDEST PUSH2 0x10D PUSH2 0x52A JUMP JUMPDEST STOP JUMPDEST CALLVALUE DUP1 ISZERO PUSH2 0x11A JUMPI PUSH0 DUP1 REVERT JUMPDEST POP PUSH2 0x123 PUSH2 0x5BB JUMP JUMPDEST PUSH1 0x40 MLOAD PUSH2 0x130 SWAP2 SWAP1 PUSH2 0x851 JUMP JUMPDEST PUSH1 0x40 MLOAD DUP1 SWAP2 SUB SWAP1 RETURN JUMPDEST CALLVALUE DUP1 ISZERO PUSH2 0x144 JUMPI PUSH0 DUP1 REVERT JUMPDEST POP PUSH2 0x15F PUSH1 0x4 DUP1 CALLDATASIZE SUB DUP2 ADD SWAP1 PUSH2 0x15A SWAP2 SWAP1 PUSH2 0x7DD JUMP JUMPDEST PUSH2 0x656 JUMP JUMPDEST STOP JUMPDEST PUSH9 0xAD78EBC5AC6200000 PUSH2 0x174 SELFBALANCE PUSH2 0x728 JUMP JUMPDEST GT ISZERO PUSH2 0x1B5 JUMPI PUSH1 0x40 MLOAD PUSH32 0x8C379A000000000000000000000000000000000000000000000000000000000 DUP2 MSTORE PUSH1 0x4 ADD PUSH2 0x1AC SWAP1 PUSH2 0x8C4 JUMP JUMPDEST PUSH1 0x40 MLOAD DUP1 SWAP2 SUB SWAP1 REVERT JUMPDEST PUSH0 PUSH1 0x2 PUSH0 CALLER PUSH20 0xFFFFFFFFFFFFFFFFFFFFFFFFFFFFFFFFFFFFFFFF AND PUSH20 0xFFFFFFFFFFFFFFFFFFFFFFFFFFFFFFFFFFFFFFFF AND DUP2 MSTORE PUSH1 0x20 ADD SWAP1 DUP2 MSTORE PUSH1 0x20 ADD PUSH0 KECCAK256 SLOAD SUB PUSH2 0x234 JUMPI PUSH1 0x40 MLOAD PUSH32 0x8C379A000000000000000000000000000000000000000000000000000000000 DUP2 MSTORE PUSH1 0x4 ADD PUSH2 0x22B SWAP1 PUSH2 0x92C JUMP JUMPDEST PUSH1 0x40 MLOAD DUP1 SWAP2 SUB SWAP1 REVERT JUMPDEST PUSH0 CALLER PUSH20 0xFFFFFFFFFFFFFFFFFFFFFFFFFFFFFFFFFFFFFFFF AND PUSH1 0x2 PUSH0 CALLER PUSH20 0xFFFFFFFFFFFFFFFFFFFFFFFFFFFFFFFFFFFFFFFF AND PUSH20 0xFFFFFFFFFFFFFFFFFFFFFFFFFFFFFFFFFFFFFFFF AND DUP2 MSTORE PUSH1 0x20 ADD SWAP1 DUP2 MSTORE PUSH1 0x20 ADD PUSH0 KECCAK256 SLOAD PUSH1 0x40 MLOAD PUSH2 0x296 SWAP1 PUSH2 0x977 JUMP JUMPDEST PUSH0 PUSH1 0x40 MLOAD DUP1 DUP4 SUB DUP2 DUP6 DUP8 GAS CALL SWAP3 POP POP POP RETURNDATASIZE DUP1 PUSH0 DUP2 EQ PUSH2 0x2D0 JUMPI PUSH1 0x40 MLOAD SWAP2 POP PUSH1 0x1F NOT PUSH1 0x3F RETURNDATASIZE ADD AND DUP3 ADD PUSH1 0x40 MSTORE RETURNDATASIZE DUP3 MSTORE RETURNDATASIZE PUSH0 PUSH1 0x20 DUP5 ADD RETURNDATACOPY PUSH2 0x2D5 JUMP JUMPDEST PUSH1 0x60 SWAP2 POP JUMPDEST POP POP DUP1 SWAP2 POP POP DUP1 PUSH2 0x31B JUMPI PUSH1 0x40 MLOAD PUSH32 0x8C379A000000000000000000000000000000000000000000000000000000000 DUP2 MSTORE PUSH1 0x4 ADD PUSH2 0x312 SWAP1 PUSH2 0x9D5 JUMP JUMPDEST PUSH1 0x40 MLOAD DUP1 SWAP2 SUB SWAP1 REVERT JUMPDEST PUSH0 PUSH1 0x2 PUSH0 CALLER PUSH20 0xFFFFFFFFFFFFFFFFFFFFFFFFFFFFFFFFFFFFFFFF AND PUSH20 0xFFFFFFFFFFFFFFFFFFFFFFFFFFFFFFFFFFFFFFFF AND DUP2 MSTORE PUSH1 0x20 ADD SWAP1 DUP2 MSTORE PUSH1 0x20 ADD PUSH0 KECCAK256 DUP2 SWAP1 SSTORE POP POP JUMP JUMPDEST PUSH9 0xAD78EBC5AC6200000 PUSH2 0x373 SELFBALANCE PUSH2 0x728 JUMP JUMPDEST LT ISZERO PUSH2 0x3B4 JUMPI PUSH1 0x40 MLOAD PUSH32 0x8C379A000000000000000000000000000000000000000000000000000000000 DUP2 MSTORE PUSH1 0x4 ADD PUSH2 0x3AB SWAP1 PUSH2 0xA3D JUMP JUMPDEST PUSH1 0x40 MLOAD DUP1 SWAP2 SUB SWAP1 REVERT JUMPDEST PUSH1 0x1 PUSH0 SWAP1 SLOAD SWAP1 PUSH2 0x100 EXP SWAP1 DIV PUSH20 0xFFFFFFFFFFFFFFFFFFFFFFFFFFFFFFFFFFFFFFFF AND PUSH20 0xFFFFFFFFFFFFFFFFFFFFFFFFFFFFFFFFFFFFFFFF AND CALLER PUSH20 0xFFFFFFFFFFFFFFFFFFFFFFFFFFFFFFFFFFFFFFFF AND EQ PUSH2 0x443 JUMPI PUSH1 0x40 MLOAD PUSH32 0x8C379A000000000000000000000000000000000000000000000000000000000 DUP2 MSTORE PUSH1 0x4 ADD PUSH2 0x43A SWAP1 PUSH2 0xAA5 JUMP JUMPDEST PUSH1 0x40 MLOAD DUP1 SWAP2 SUB SWAP1 REVERT JUMPDEST PUSH0 CALLER PUSH20 0xFFFFFFFFFFFFFFFFFFFFFFFFFFFFFFFFFFFFFFFF AND SELFBALANCE PUSH1 0x40 MLOAD PUSH2 0x468 SWAP1 PUSH2 0x977 JUMP JUMPDEST PUSH0 PUSH1 0x40 MLOAD DUP1 DUP4 SUB DUP2 DUP6 DUP8 GAS CALL SWAP3 POP POP POP RETURNDATASIZE DUP1 PUSH0 DUP2 EQ PUSH2 0x4A2 JUMPI PUSH1 0x40 MLOAD SWAP2 POP PUSH1 0x1F NOT PUSH1 0x3F RETURNDATASIZE ADD AND DUP3 ADD PUSH1 0x40 MSTORE RETURNDATASIZE DUP3 MSTORE RETURNDATASIZE PUSH0 PUSH1 0x20 DUP5 ADD RETURNDATACOPY PUSH2 0x4A7 JUMP JUMPDEST PUSH1 0x60 SWAP2 POP JUMPDEST POP POP DUP1 SWAP2 POP POP DUP1 PUSH2 0x4ED JUMPI PUSH1 0x40 MLOAD PUSH32 0x8C379A000000000000000000000000000000000000000000000000000000000 DUP2 MSTORE PUSH1 0x4 ADD PUSH2 0x4E4 SWAP1 PUSH2 0xB0D JUMP JUMPDEST PUSH1 0x40 MLOAD DUP1 SWAP2 SUB SWAP1 REVERT JUMPDEST POP JUMP JUMPDEST PUSH1 0x1 PUSH0 SWAP1 SLOAD SWAP1 PUSH2 0x100 EXP SWAP1 DIV PUSH20 0xFFFFFFFFFFFFFFFFFFFFFFFFFFFFFFFFFFFFFFFF AND DUP2 JUMP JUMPDEST PUSH1 0x2 PUSH1 0x20 MSTORE DUP1 PUSH0 MSTORE PUSH1 0x40 PUSH0 KECCAK256 PUSH0 SWAP2 POP SWAP1 POP SLOAD DUP2 JUMP JUMPDEST PUSH2 0x533 CALLVALUE PUSH2 0x728 JUMP JUMPDEST PUSH1 0x3 SLOAD GT ISZERO PUSH2 0x577 JUMPI PUSH1 0x40 MLOAD PUSH32 0x8C379A000000000000000000000000000000000000000000000000000000000 DUP2 MSTORE PUSH1 0x4 ADD PUSH2 0x56E SWAP1 PUSH2 0xB75 JUMP JUMPDEST PUSH1 0x40 MLOAD DUP1 SWAP2 SUB SWAP1 REVERT JUMPDEST CALLVALUE PUSH1 0x2 PUSH0 CALLER PUSH20 0xFFFFFFFFFFFFFFFFFFFFFFFFFFFFFFFFFFFFFFFF AND PUSH20 0xFFFFFFFFFFFFFFFFFFFFFFFFFFFFFFFFFFFFFFFF AND DUP2 MSTORE PUSH1 0x20 ADD SWAP1 DUP2 MSTORE PUSH1 0x20 ADD PUSH0 KECCAK256 DUP2 SWAP1 SSTORE POP JUMP JUMPDEST PUSH0 DUP1 PUSH0 DUP1 SLOAD SWAP1 PUSH2 0x100 EXP SWAP1 DIV PUSH20 0xFFFFFFFFFFFFFFFFFFFFFFFFFFFFFFFFFFFFFFFF AND PUSH20 0xFFFFFFFFFFFFFFFFFFFFFFFFFFFFFFFFFFFFFFFF AND PUSH4 0xFEAF968C PUSH1 0x40 MLOAD DUP2 PUSH4 0xFFFFFFFF AND PUSH1 0xE0 SHL DUP2 MSTORE PUSH1 0x4 ADD PUSH1 0xA0 PUSH1 0x40 MLOAD DUP1 DUP4 SUB DUP2 DUP7 GAS STATICCALL ISZERO DUP1 ISZERO PUSH2 0x625 JUMPI RETURNDATASIZE PUSH0 DUP1 RETURNDATACOPY RETURNDATASIZE PUSH0 REVERT JUMPDEST POP POP POP POP PUSH1 0x40 MLOAD RETURNDATASIZE PUSH1 0x1F NOT PUSH1 0x1F DUP3 ADD AND DUP3 ADD DUP1 PUSH1 0x40 MSTORE POP DUP2 ADD SWAP1 PUSH2 0x649 SWAP2 SWAP1 PUSH2 0xC26 JUMP JUMPDEST POP POP POP SWAP2 POP POP DUP1 SWAP2 POP POP SWAP1 JUMP JUMPDEST PUSH1 0x1 PUSH0 SWAP1 SLOAD SWAP1 PUSH2 0x100 EXP SWAP1 DIV PUSH20 0xFFFFFFFFFFFFFFFFFFFFFFFFFFFFFFFFFFFFFFFF AND PUSH20 0xFFFFFFFFFFFFFFFFFFFFFFFFFFFFFFFFFFFFFFFF AND CALLER PUSH20 0xFFFFFFFFFFFFFFFFFFFFFFFFFFFFFFFFFFFFFFFF AND EQ PUSH2 0x6E5 JUMPI PUSH1 0x40 MLOAD PUSH32 0x8C379A000000000000000000000000000000000000000000000000000000000 DUP2 MSTORE PUSH1 0x4 ADD PUSH2 0x6DC SWAP1 PUSH2 0xD0D JUMP JUMPDEST PUSH1 0x40 MLOAD DUP1 SWAP2 SUB SWAP1 REVERT JUMPDEST DUP1 PUSH1 0x1 PUSH0 PUSH2 0x100 EXP DUP2 SLOAD DUP2 PUSH20 0xFFFFFFFFFFFFFFFFFFFFFFFFFFFFFFFFFFFFFFFF MUL NOT AND SWAP1 DUP4 PUSH20 0xFFFFFFFFFFFFFFFFFFFFFFFFFFFFFFFFFFFFFFFF AND MUL OR SWAP1 SSTORE POP POP JUMP JUMPDEST PUSH0 DUP1 PUSH2 0x732 PUSH2 0x5BB JUMP JUMPDEST SWAP1 POP PUSH4 0x5F5E100 DUP2 DUP5 PUSH2 0x745 SWAP2 SWAP1 PUSH2 0xD58 JUMP JUMPDEST PUSH2 0x74F SWAP2 SWAP1 PUSH2 0xDC6 JUMP JUMPDEST SWAP2 POP POP SWAP2 SWAP1 POP JUMP JUMPDEST PUSH0 PUSH20 0xFFFFFFFFFFFFFFFFFFFFFFFFFFFFFFFFFFFFFFFF DUP3 AND SWAP1 POP SWAP2 SWAP1 POP JUMP JUMPDEST PUSH0 PUSH2 0x780 DUP3 PUSH2 0x757 JUMP JUMPDEST SWAP1 POP SWAP2 SWAP1 POP JUMP JUMPDEST PUSH2 0x790 DUP2 PUSH2 0x776 JUMP JUMPDEST DUP3 MSTORE POP POP JUMP JUMPDEST PUSH0 PUSH1 0x20 DUP3 ADD SWAP1 POP PUSH2 0x7A9 PUSH0 DUP4 ADD DUP5 PUSH2 0x787 JUMP JUMPDEST SWAP3 SWAP2 POP POP JUMP JUMPDEST PUSH0 DUP1 REVERT JUMPDEST PUSH2 0x7BC DUP2 PUSH2 0x776 JUMP JUMPDEST DUP2 EQ PUSH2 0x7C6 JUMPI PUSH0 DUP1 REVERT JUMPDEST POP JUMP JUMPDEST PUSH0 DUP2 CALLDATALOAD SWAP1 POP PUSH2 0x7D7 DUP2 PUSH2 0x7B3 JUMP JUMPDEST SWAP3 SWAP2 POP POP JUMP JUMPDEST PUSH0 PUSH1 0x20 DUP3 DUP5 SUB SLT ISZERO PUSH2 0x7F2 JUMPI PUSH2 0x7F1 PUSH2 0x7AF JUMP JUMPDEST JUMPDEST PUSH0 PUSH2 0x7FF DUP5 DUP3 DUP6 ADD PUSH2 0x7C9 JUMP JUMPDEST SWAP2 POP POP SWAP3 SWAP2 POP POP JUMP JUMPDEST PUSH0 DUP2 SWAP1 POP SWAP2 SWAP1 POP JUMP JUMPDEST PUSH2 0x81A DUP2 PUSH2 0x808 JUMP JUMPDEST DUP3 MSTORE POP POP JUMP JUMPDEST PUSH0 PUSH1 0x20 DUP3 ADD SWAP1 POP PUSH2 0x833 PUSH0 DUP4 ADD DUP5 PUSH2 0x811 JUMP JUMPDEST SWAP3 SWAP2 POP POP JUMP JUMPDEST PUSH0 DUP2 SWAP1 POP SWAP2 SWAP1 POP JUMP JUMPDEST PUSH2 0x84B DUP2 PUSH2 0x839 JUMP JUMPDEST DUP3 MSTORE POP POP JUMP JUMPDEST PUSH0 PUSH1 0x20 DUP3 ADD SWAP1 POP PUSH2 0x864 PUSH0 DUP4 ADD DUP5 PUSH2 0x842 JUMP JUMPDEST SWAP3 SWAP2 POP POP JUMP JUMPDEST PUSH0 DUP3 DUP3 MSTORE PUSH1 0x20 DUP3 ADD SWAP1 POP SWAP3 SWAP2 POP POP JUMP JUMPDEST PUSH32 0x5461726765742069732072656163686564210000000000000000000000000000 PUSH0 DUP3 ADD MSTORE POP JUMP JUMPDEST PUSH0 PUSH2 0x8AE PUSH1 0x12 DUP4 PUSH2 0x86A JUMP JUMPDEST SWAP2 POP PUSH2 0x8B9 DUP3 PUSH2 0x87A JUMP JUMPDEST PUSH1 0x20 DUP3 ADD SWAP1 POP SWAP2 SWAP1 POP JUMP JUMPDEST PUSH0 PUSH1 0x20 DUP3 ADD SWAP1 POP DUP2 DUP2 SUB PUSH0 DUP4 ADD MSTORE PUSH2 0x8DB DUP2 PUSH2 0x8A2 JUMP JUMPDEST SWAP1 POP SWAP2 SWAP1 POP JUMP JUMPDEST PUSH32 0x596F752068617665206E6F742066756E64656420796574210000000000000000 PUSH0 DUP3 ADD MSTORE POP JUMP JUMPDEST PUSH0 PUSH2 0x916 PUSH1 0x18 DUP4 PUSH2 0x86A JUMP JUMPDEST SWAP2 POP PUSH2 0x921 DUP3 PUSH2 0x8E2 JUMP JUMPDEST PUSH1 0x20 DUP3 ADD SWAP1 POP SWAP2 SWAP1 POP JUMP JUMPDEST PUSH0 PUSH1 0x20 DUP3 ADD SWAP1 POP DUP2 DUP2 SUB PUSH0 DUP4 ADD MSTORE PUSH2 0x943 DUP2 PUSH2 0x90A JUMP JUMPDEST SWAP1 POP SWAP2 SWAP1 POP JUMP JUMPDEST PUSH0 DUP2 SWAP1 POP SWAP3 SWAP2 POP POP JUMP JUMPDEST POP JUMP JUMPDEST PUSH0 PUSH2 0x962 PUSH0 DUP4 PUSH2 0x94A JUMP JUMPDEST SWAP2 POP PUSH2 0x96D DUP3 PUSH2 0x954 JUMP JUMPDEST PUSH0 DUP3 ADD SWAP1 POP SWAP2 SWAP1 POP JUMP JUMPDEST PUSH0 PUSH2 0x981 DUP3 PUSH2 0x957 JUMP JUMPDEST SWAP2 POP DUP2 SWAP1 POP SWAP2 SWAP1 POP JUMP JUMPDEST PUSH32 0x726566756E64206572726F722100000000000000000000000000000000000000 PUSH0 DUP3 ADD MSTORE POP JUMP JUMPDEST PUSH0 PUSH2 0x9BF PUSH1 0xD DUP4 PUSH2 0x86A JUMP JUMPDEST SWAP2 POP PUSH2 0x9CA DUP3 PUSH2 0x98B JUMP JUMPDEST PUSH1 0x20 DUP3 ADD SWAP1 POP SWAP2 SWAP1 POP JUMP JUMPDEST PUSH0 PUSH1 0x20 DUP3 ADD SWAP1 POP DUP2 DUP2 SUB PUSH0 DUP4 ADD MSTORE PUSH2 0x9EC DUP2 PUSH2 0x9B3 JUMP JUMPDEST SWAP1 POP SWAP2 SWAP1 POP JUMP JUMPDEST PUSH32 0x546172676574206E6F7420726561636865642100000000000000000000000000 PUSH0 DUP3 ADD MSTORE POP JUMP JUMPDEST PUSH0 PUSH2 0xA27 PUSH1 0x13 DUP4 PUSH2 0x86A JUMP JUMPDEST SWAP2 POP PUSH2 0xA32 DUP3 PUSH2 0x9F3 JUMP JUMPDEST PUSH1 0x20 DUP3 ADD SWAP1 POP SWAP2 SWAP1 POP JUMP JUMPDEST PUSH0 PUSH1 0x20 DUP3 ADD SWAP1 POP DUP2 DUP2 SUB PUSH0 DUP4 ADD MSTORE PUSH2 0xA54 DUP2 PUSH2 0xA1B JUMP JUMPDEST SWAP1 POP SWAP2 SWAP1 POP JUMP JUMPDEST PUSH32 0x4F6E6C79204F776E65722063616E2066756E6421000000000000000000000000 PUSH0 DUP3 ADD MSTORE POP JUMP JUMPDEST PUSH0 PUSH2 0xA8F PUSH1 0x14 DUP4 PUSH2 0x86A JUMP JUMPDEST SWAP2 POP PUSH2 0xA9A DUP3 PUSH2 0xA5B JUMP JUMPDEST PUSH1 0x20 DUP3 ADD SWAP1 POP SWAP2 SWAP1 POP JUMP JUMPDEST PUSH0 PUSH1 0x20 DUP3 ADD SWAP1 POP DUP2 DUP2 SUB PUSH0 DUP4 ADD MSTORE PUSH2 0xABC DUP2 PUSH2 0xA83 JUMP JUMPDEST SWAP1 POP SWAP2 SWAP1 POP JUMP JUMPDEST PUSH32 0x63616C6C206572726F7221000000000000000000000000000000000000000000 PUSH0 DUP3 ADD MSTORE POP JUMP JUMPDEST PUSH0 PUSH2 0xAF7 PUSH1 0xB DUP4 PUSH2 0x86A JUMP JUMPDEST SWAP2 POP PUSH2 0xB02 DUP3 PUSH2 0xAC3 JUMP JUMPDEST PUSH1 0x20 DUP3 ADD SWAP1 POP SWAP2 SWAP1 POP JUMP JUMPDEST PUSH0 PUSH1 0x20 DUP3 ADD SWAP1 POP DUP2 DUP2 SUB PUSH0 DUP4 ADD MSTORE PUSH2 0xB24 DUP2 PUSH2 0xAEB JUMP JUMPDEST SWAP1 POP SWAP2 SWAP1 POP JUMP JUMPDEST PUSH32 0x46756E64206D6F72652045544821000000000000000000000000000000000000 PUSH0 DUP3 ADD MSTORE POP JUMP JUMPDEST PUSH0 PUSH2 0xB5F PUSH1 0xE DUP4 PUSH2 0x86A JUMP JUMPDEST SWAP2 POP PUSH2 0xB6A DUP3 PUSH2 0xB2B JUMP JUMPDEST PUSH1 0x20 DUP3 ADD SWAP1 POP SWAP2 SWAP1 POP JUMP JUMPDEST PUSH0 PUSH1 0x20 DUP3 ADD SWAP1 POP DUP2 DUP2 SUB PUSH0 DUP4 ADD MSTORE PUSH2 0xB8C DUP2 PUSH2 0xB53 JUMP JUMPDEST SWAP1 POP SWAP2 SWAP1 POP JUMP JUMPDEST PUSH0 PUSH10 0xFFFFFFFFFFFFFFFFFFFF DUP3 AND SWAP1 POP SWAP2 SWAP1 POP JUMP JUMPDEST PUSH2 0xBB1 DUP2 PUSH2 0xB93 JUMP JUMPDEST DUP2 EQ PUSH2 0xBBB JUMPI PUSH0 DUP1 REVERT JUMPDEST POP JUMP JUMPDEST PUSH0 DUP2 MLOAD SWAP1 POP PUSH2 0xBCC DUP2 PUSH2 0xBA8 JUMP JUMPDEST SWAP3 SWAP2 POP POP JUMP JUMPDEST PUSH2 0xBDB DUP2 PUSH2 0x839 JUMP JUMPDEST DUP2 EQ PUSH2 0xBE5 JUMPI PUSH0 DUP1 REVERT JUMPDEST POP JUMP JUMPDEST PUSH0 DUP2 MLOAD SWAP1 POP PUSH2 0xBF6 DUP2 PUSH2 0xBD2 JUMP JUMPDEST SWAP3 SWAP2 POP POP JUMP JUMPDEST PUSH2 0xC05 DUP2 PUSH2 0x808 JUMP JUMPDEST DUP2 EQ PUSH2 0xC0F JUMPI PUSH0 DUP1 REVERT JUMPDEST POP JUMP JUMPDEST PUSH0 DUP2 MLOAD SWAP1 POP PUSH2 0xC20 DUP2 PUSH2 0xBFC JUMP JUMPDEST SWAP3 SWAP2 POP POP JUMP JUMPDEST PUSH0 DUP1 PUSH0 DUP1 PUSH0 PUSH1 0xA0 DUP7 DUP9 SUB SLT ISZERO PUSH2 0xC3F JUMPI PUSH2 0xC3E PUSH2 0x7AF JUMP JUMPDEST JUMPDEST PUSH0 PUSH2 0xC4C DUP9 DUP3 DUP10 ADD PUSH2 0xBBE JUMP JUMPDEST SWAP6 POP POP PUSH1 0x20 PUSH2 0xC5D DUP9 DUP3 DUP10 ADD PUSH2 0xBE8 JUMP JUMPDEST SWAP5 POP POP PUSH1 0x40 PUSH2 0xC6E DUP9 DUP3 DUP10 ADD PUSH2 0xC12 JUMP JUMPDEST SWAP4 POP POP PUSH1 0x60 PUSH2 0xC7F DUP9 DUP3 DUP10 ADD PUSH2 0xC12 JUMP JUMPDEST SWAP3 POP POP PUSH1 0x80 PUSH2 0xC90 DUP9 DUP3 DUP10 ADD PUSH2 0xBBE JUMP JUMPDEST SWAP2 POP POP SWAP3 SWAP6 POP SWAP3 SWAP6 SWAP1 SWAP4 POP JUMP JUMPDEST PUSH32 0x4F6E6C79206F776E65722063616E207472616E73666572206F776E6572736869 PUSH0 DUP3 ADD MSTORE PUSH32 0x7021000000000000000000000000000000000000000000000000000000000000 PUSH1 0x20 DUP3 ADD MSTORE POP JUMP JUMPDEST PUSH0 PUSH2 0xCF7 PUSH1 0x22 DUP4 PUSH2 0x86A JUMP JUMPDEST SWAP2 POP PUSH2 0xD02 DUP3 PUSH2 0xC9D JUMP JUMPDEST PUSH1 0x40 DUP3 ADD SWAP1 POP SWAP2 SWAP1 POP JUMP JUMPDEST PUSH0 PUSH1 0x20 DUP3 ADD SWAP1 POP DUP2 DUP2 SUB PUSH0 DUP4 ADD MSTORE PUSH2 0xD24 DUP2 PUSH2 0xCEB JUMP JUMPDEST SWAP1 POP SWAP2 SWAP1 POP JUMP JUMPDEST PUSH32 0x4E487B7100000000000000000000000000000000000000000000000000000000 PUSH0 MSTORE PUSH1 0x11 PUSH1 0x4 MSTORE PUSH1 0x24 PUSH0 REVERT JUMPDEST PUSH0 PUSH2 0xD62 DUP3 PUSH2 0x808 JUMP JUMPDEST SWAP2 POP PUSH2 0xD6D DUP4 PUSH2 0x808 JUMP JUMPDEST SWAP3 POP DUP3 DUP3 MUL PUSH2 0xD7B DUP2 PUSH2 0x808 JUMP JUMPDEST SWAP2 POP DUP3 DUP3 DIV DUP5 EQ DUP4 ISZERO OR PUSH2 0xD92 JUMPI PUSH2 0xD91 PUSH2 0xD2B JUMP JUMPDEST JUMPDEST POP SWAP3 SWAP2 POP POP JUMP JUMPDEST PUSH32 0x4E487B7100000000000000000000000000000000000000000000000000000000 PUSH0 MSTORE PUSH1 0x12 PUSH1 0x4 MSTORE PUSH1 0x24 PUSH0 REVERT JUMPDEST PUSH0 PUSH2 0xDD0 DUP3 PUSH2 0x808 JUMP JUMPDEST SWAP2 POP PUSH2 0xDDB DUP4 PUSH2 0x808 JUMP JUMPDEST SWAP3 POP DUP3 PUSH2 0xDEB JUMPI PUSH2 0xDEA PUSH2 0xD99 JUMP JUMPDEST JUMPDEST DUP3 DUP3 DIV SWAP1 POP SWAP3 SWAP2 POP POP JUMP INVALID LOG2 PUSH5 0x6970667358 0x22 SLT KECCAK256 SELFDESTRUCT PREVRANDAO 0x2F 0xBC RETURN DUP1 0xC1 PUSH24 0x166986D01C5E822D1B7FF110C3BF357756ABD7E730850F73 PUSH5 0x736F6C6343 STOP ADDMOD EQ STOP CALLER "
				},
				"gasEstimates": {
					"creation": {
						"codeDepositCost": "725600",
						"executionCost": "71395",
						"totalCost": "796995"
					},
					"external": {
						"fund()": "infinite",
						"fundersToAmount(address)": "2802",
						"getChainlinkDataFeedLatestAnswer()": "infinite",
						"getFound()": "infinite",
						"owner()": "2553",
						"reFund()": "infinite",
						"transferOwnership(address)": "26950"
					},
					"internal": {
						"convertEthToUsd(uint256)": "infinite"
					}
				},
				"methodIdentifiers": {
					"fund()": "b60d4288",
					"fundersToAmount(address)": "9f883a05",
					"getChainlinkDataFeedLatestAnswer()": "bea4dfb5",
					"getFound()": "829006b3",
					"owner()": "8da5cb5b",
					"reFund()": "0ff0a4df",
					"transferOwnership(address)": "f2fde38b"
				}
			},
			"storageLayout": {
				"storage": [
					{
						"astId": 52,
						"contract": "day02/FundMe.sol:FounMe",
						"label": "dataFeed",
						"offset": 0,
						"slot": "0",
						"type": "t_contract(AggregatorV3Interface)45"
					},
					{
						"astId": 54,
						"contract": "day02/FundMe.sol:FounMe",
						"label": "owner",
						"offset": 0,
						"slot": "1",
						"type": "t_address"
					},
					{
						"astId": 58,
						"contract": "day02/FundMe.sol:FounMe",
						"label": "fundersToAmount",
						"offset": 0,
						"slot": "2",
						"type": "t_mapping(t_address,t_uint256)"
					},
					{
						"astId": 65,
						"contract": "day02/FundMe.sol:FounMe",
						"label": "MIN_VALUE",
						"offset": 0,
						"slot": "3",
						"type": "t_uint256"
					}
				],
				"types": {
					"t_address": {
						"encoding": "inplace",
						"label": "address",
						"numberOfBytes": "20"
					},
					"t_contract(AggregatorV3Interface)45": {
						"encoding": "inplace",
						"label": "contract AggregatorV3Interface",
						"numberOfBytes": "20"
					},
					"t_mapping(t_address,t_uint256)": {
						"encoding": "mapping",
						"key": "t_address",
						"label": "mapping(address => uint256)",
						"numberOfBytes": "32",
						"value": "t_uint256"
					},
					"t_uint256": {
						"encoding": "inplace",
						"label": "uint256",
						"numberOfBytes": "32"
					}
				}
			},
			"userdoc": {
				"kind": "user",
				"methods": {},
				"version": 1
			}
		}
	}
}