{
	"data": {
		"bytecode": {
			"linkReferences": {},
			"object": "608060405268056bc75e2d631000006001555f600660146101000a81548160ff02191690831515021790555034801562000037575f80fd5b506040516200158c3803806200158c83398181016040528101906200005d919062000142565b73694aa1769357215de4fac081bf1f309adc32530660025f6101000a81548173ffffffffffffffffffffffffffffffffffffffff021916908373ffffffffffffffffffffffffffffffffffffffff1602179055503360035f6101000a81548173ffffffffffffffffffffffffffffffffffffffff021916908373ffffffffffffffffffffffffffffffffffffffff16021790555042600481905550806005819055505062000172565b5f80fd5b5f819050919050565b6200011e816200010a565b811462000129575f80fd5b50565b5f815190506200013c8162000113565b92915050565b5f602082840312156200015a576200015962000106565b5b5f62000169848285016200012c565b91505092915050565b61140c80620001805f395ff3fe608060405260043610610090575f3560e01c8063b60d428811610058578063b60d42881461014e578063bea4dfb514610158578063da4658e014610182578063ecf15dfd146101ac578063f2fde38b146101d457610090565b80630ff0a4df1461009457806313ffff01146100aa5780638da5cb5b146100d25780638edd6eb6146100fc5780639f883a0514610112575b5f80fd5b34801561009f575f80fd5b506100a86101fc565b005b3480156100b5575f80fd5b506100d060048036038101906100cb9190610be7565b610447565b005b3480156100dd575f80fd5b506100e6610519565b6040516100f39190610c21565b60405180910390f35b348015610107575f80fd5b5061011061053e565b005b34801561011d575f80fd5b5061013860048036038101906101339190610be7565b610739565b6040516101459190610c52565b60405180910390f35b61015661074d565b005b348015610163575f80fd5b5061016c610904565b6040516101799190610c83565b60405180910390f35b34801561018d575f80fd5b506101966109a1565b6040516101a39190610cb6565b60405180910390f35b3480156101b7575f80fd5b506101d260048036038101906101cd9190610cf9565b6109b4565b005b3480156101df575f80fd5b506101fa60048036038101906101f59190610be7565b610a88565b005b60055460045461020c9190610d64565b42101561024e576040517f08c379a000000000000000000000000000000000000000000000000000000000815260040161024590610df1565b60405180910390fd5b681043561a882930000061026147610b5a565b106102a1576040517f08c379a000000000000000000000000000000000000000000000000000000000815260040161029890610e59565b60405180910390fd5b5f805f3373ffffffffffffffffffffffffffffffffffffffff1673ffffffffffffffffffffffffffffffffffffffff1681526020019081526020015f20541161031f576040517f08c379a000000000000000000000000000000000000000000000000000000000815260040161031690610ec1565b60405180910390fd5b5f3373ffffffffffffffffffffffffffffffffffffffff165f803373ffffffffffffffffffffffffffffffffffffffff1673ffffffffffffffffffffffffffffffffffffffff1681526020019081526020015f205460405161038090610f0c565b5f6040518083038185875af1925050503d805f81146103ba576040519150601f19603f3d011682016040523d82523d5f602084013e6103bf565b606091505b5050905080610403576040517f08c379a00000000000000000000000000000000000000000000000000000000081526004016103fa90610f6a565b60405180910390fd5b5f805f3373ffffffffffffffffffffffffffffffffffffffff1673ffffffffffffffffffffffffffffffffffffffff1681526020019081526020015f208190555050565b60035f9054906101000a900473ffffffffffffffffffffffffffffffffffffffff1673ffffffffffffffffffffffffffffffffffffffff163373ffffffffffffffffffffffffffffffffffffffff16146104d6576040517f08c379a00000000000000000000000000000000000000000000000000000000081526004016104cd90610ff8565b60405180910390fd5b8060065f6101000a81548173ffffffffffffffffffffffffffffffffffffffff021916908373ffffffffffffffffffffffffffffffffffffffff16021790555050565b60035f9054906101000a900473ffffffffffffffffffffffffffffffffffffffff1681565b60055460045461054e9190610d64565b421015610590576040517f08c379a000000000000000000000000000000000000000000000000000000000815260040161058790610df1565b60405180910390fd5b60035f9054906101000a900473ffffffffffffffffffffffffffffffffffffffff1673ffffffffffffffffffffffffffffffffffffffff163373ffffffffffffffffffffffffffffffffffffffff161461061f576040517f08c379a000000000000000000000000000000000000000000000000000000000815260040161061690610ff8565b60405180910390fd5b681043561a882930000061063247610b5a565b1015610673576040517f08c379a000000000000000000000000000000000000000000000000000000000815260040161066a90611060565b60405180910390fd5b5f3373ffffffffffffffffffffffffffffffffffffffff164760405161069890610f0c565b5f6040518083038185875af1925050503d805f81146106d2576040519150601f19603f3d011682016040523d82523d5f602084013e6106d7565b606091505b505090508061071b576040517f08c379a0000000000000000000000000000000000000000000000000000000008152600401610712906110c8565b60405180910390fd5b6001600660146101000a81548160ff02191690831515021790555050565b5f602052805f5260405f205f915090505481565b60055460045461075d9190610d64565b421061079e576040517f08c379a000000000000000000000000000000000000000000000000000000000815260040161079590611130565b60405180910390fd5b6107a734610b5a565b60015411156107eb576040517f08c379a00000000000000000000000000000000000000000000000000000000081526004016107e290611198565b60405180910390fd5b5f805f3373ffffffffffffffffffffffffffffffffffffffff1673ffffffffffffffffffffffffffffffffffffffff1681526020019081526020015f205490505f810361087857345f803373ffffffffffffffffffffffffffffffffffffffff1673ffffffffffffffffffffffffffffffffffffffff1681526020019081526020015f2081905550610901565b345f803373ffffffffffffffffffffffffffffffffffffffff1673ffffffffffffffffffffffffffffffffffffffff1681526020019081526020015f20546108c09190610d64565b5f803373ffffffffffffffffffffffffffffffffffffffff1673ffffffffffffffffffffffffffffffffffffffff1681526020019081526020015f20819055505b50565b5f8060025f9054906101000a900473ffffffffffffffffffffffffffffffffffffffff1673ffffffffffffffffffffffffffffffffffffffff1663feaf968c6040518163ffffffff1660e01b815260040160a060405180830381865afa158015610970573d5f803e3d5ffd5b505050506040513d601f19601f820116820180604052508101906109949190611233565b5050509150508091505090565b600660149054906101000a900460ff1681565b60065f9054906101000a900473ffffffffffffffffffffffffffffffffffffffff1673ffffffffffffffffffffffffffffffffffffffff163373ffffffffffffffffffffffffffffffffffffffff1614610a43576040517f08c379a0000000000000000000000000000000000000000000000000000000008152600401610a3a9061131a565b60405180910390fd5b805f808473ffffffffffffffffffffffffffffffffffffffff1673ffffffffffffffffffffffffffffffffffffffff1681526020019081526020015f20819055505050565b60035f9054906101000a900473ffffffffffffffffffffffffffffffffffffffff1673ffffffffffffffffffffffffffffffffffffffff163373ffffffffffffffffffffffffffffffffffffffff1614610b17576040517f08c379a0000000000000000000000000000000000000000000000000000000008152600401610b0e90610ff8565b60405180910390fd5b8060035f6101000a81548173ffffffffffffffffffffffffffffffffffffffff021916908373ffffffffffffffffffffffffffffffffffffffff16021790555050565b5f80610b64610904565b90506305f5e1008184610b779190611338565b610b8191906113a6565b915050919050565b5f80fd5b5f73ffffffffffffffffffffffffffffffffffffffff82169050919050565b5f610bb682610b8d565b9050919050565b610bc681610bac565b8114610bd0575f80fd5b50565b5f81359050610be181610bbd565b92915050565b5f60208284031215610bfc57610bfb610b89565b5b5f610c0984828501610bd3565b91505092915050565b610c1b81610bac565b82525050565b5f602082019050610c345f830184610c12565b92915050565b5f819050919050565b610c4c81610c3a565b82525050565b5f602082019050610c655f830184610c43565b92915050565b5f819050919050565b610c7d81610c6b565b82525050565b5f602082019050610c965f830184610c74565b92915050565b5f8115159050919050565b610cb081610c9c565b82525050565b5f602082019050610cc95f830184610ca7565b92915050565b610cd881610c3a565b8114610ce2575f80fd5b50565b5f81359050610cf381610ccf565b92915050565b5f8060408385031215610d0f57610d0e610b89565b5b5f610d1c85828601610bd3565b9250506020610d2d85828601610ce5565b9150509250929050565b7f4e487b71000000000000000000000000000000000000000000000000000000005f52601160045260245ffd5b5f610d6e82610c3a565b9150610d7983610c3a565b9250828201905080821115610d9157610d90610d37565b5b92915050565b5f82825260208201905092915050565b7f77696e646f77206973206e6f7420636c6f7365640000000000000000000000005f82015250565b5f610ddb601483610d97565b9150610de682610da7565b602082019050919050565b5f6020820190508181035f830152610e0881610dcf565b9050919050565b7f54617267657420686173207265616368656421000000000000000000000000005f82015250565b5f610e43601383610d97565b9150610e4e82610e0f565b602082019050919050565b5f6020820190508181035f830152610e7081610e37565b9050919050565b7f7468657265206973206e6f2066756e6420666f7220796f7520000000000000005f82015250565b5f610eab601983610d97565b9150610eb682610e77565b602082019050919050565b5f6020820190508181035f830152610ed881610e9f565b9050919050565b5f81905092915050565b50565b5f610ef75f83610edf565b9150610f0282610ee9565b5f82019050919050565b5f610f1682610eec565b9150819050919050565b7f726566756e64206661696c6564210000000000000000000000000000000000005f82015250565b5f610f54600e83610d97565b9150610f5f82610f20565b602082019050919050565b5f6020820190508181035f830152610f8181610f48565b9050919050565b7f4f6e6c79206f776e65722063616e2063616c6c20746869732066756e6374696f5f8201527f6e00000000000000000000000000000000000000000000000000000000000000602082015250565b5f610fe2602183610d97565b9150610fed82610f88565b604082019050919050565b5f6020820190508181035f83015261100f81610fd6565b9050919050565b7f546172676574206973206e6f74207265616368656421000000000000000000005f82015250565b5f61104a601683610d97565b915061105582611016565b602082019050919050565b5f6020820190508181035f8301526110778161103e565b9050919050565b7f7478206669616c656421000000000000000000000000000000000000000000005f82015250565b5f6110b2600a83610d97565b91506110bd8261107e565b602082019050919050565b5f6020820190508181035f8301526110df816110a6565b9050919050565b7f77696e646f7720697320636c6f736564000000000000000000000000000000005f82015250565b5f61111a601083610d97565b9150611125826110e6565b602082019050919050565b5f6020820190508181035f8301526111478161110e565b9050919050565b7f53656e64206d6f726520455448210000000000000000000000000000000000005f82015250565b5f611182600e83610d97565b915061118d8261114e565b602082019050919050565b5f6020820190508181035f8301526111af81611176565b9050919050565b5f69ffffffffffffffffffff82169050919050565b6111d4816111b6565b81146111de575f80fd5b50565b5f815190506111ef816111cb565b92915050565b6111fe81610c6b565b8114611208575f80fd5b50565b5f81519050611219816111f5565b92915050565b5f8151905061122d81610ccf565b92915050565b5f805f805f60a0868803121561124c5761124b610b89565b5b5f611259888289016111e1565b955050602061126a8882890161120b565b945050604061127b8882890161121f565b935050606061128c8882890161121f565b925050608061129d888289016111e1565b9150509295509295909350565b7f796f7520646f6e742068617665207065726d697373696f6e20746f2063616c6c5f8201527f20746869732066756e6374696f6e210000000000000000000000000000000000602082015250565b5f611304602f83610d97565b915061130f826112aa565b604082019050919050565b5f6020820190508181035f830152611331816112f8565b9050919050565b5f61134282610c3a565b915061134d83610c3a565b925082820261135b81610c3a565b9150828204841483151761137257611371610d37565b5b5092915050565b7f4e487b71000000000000000000000000000000000000000000000000000000005f52601260045260245ffd5b5f6113b082610c3a565b91506113bb83610c3a565b9250826113cb576113ca611379565b5b82820490509291505056fea264697066735822122057ed5e32c5e0e006b8f223d87015eb375515fec5ba27c114a8e1076e262bc43d64736f6c63430008140033",
			"opcodes": "PUSH1 0x80 PUSH1 0x40 MSTORE PUSH9 0x56BC75E2D63100000 PUSH1 0x1 SSTORE PUSH0 PUSH1 0x6 PUSH1 0x14 PUSH2 0x100 EXP DUP2 SLOAD DUP2 PUSH1 0xFF MUL NOT AND SWAP1 DUP4 ISZERO ISZERO MUL OR SWAP1 SSTORE POP CALLVALUE DUP1 ISZERO PUSH3 0x37 JUMPI PUSH0 DUP1 REVERT JUMPDEST POP PUSH1 0x40 MLOAD PUSH3 0x158C CODESIZE SUB DUP1 PUSH3 0x158C DUP4 CODECOPY DUP2 DUP2 ADD PUSH1 0x40 MSTORE DUP2 ADD SWAP1 PUSH3 0x5D SWAP2 SWAP1 PUSH3 0x142 JUMP JUMPDEST PUSH20 0x694AA1769357215DE4FAC081BF1F309ADC325306 PUSH1 0x2 PUSH0 PUSH2 0x100 EXP DUP2 SLOAD DUP2 PUSH20 0xFFFFFFFFFFFFFFFFFFFFFFFFFFFFFFFFFFFFFFFF MUL NOT AND SWAP1 DUP4 PUSH20 0xFFFFFFFFFFFFFFFFFFFFFFFFFFFFFFFFFFFFFFFF AND MUL OR SWAP1 SSTORE POP CALLER PUSH1 0x3 PUSH0 PUSH2 0x100 EXP DUP2 SLOAD DUP2 PUSH20 0xFFFFFFFFFFFFFFFFFFFFFFFFFFFFFFFFFFFFFFFF MUL NOT AND SWAP1 DUP4 PUSH20 0xFFFFFFFFFFFFFFFFFFFFFFFFFFFFFFFFFFFFFFFF AND MUL OR SWAP1 SSTORE POP TIMESTAMP PUSH1 0x4 DUP2 SWAP1 SSTORE POP DUP1 PUSH1 0x5 DUP2 SWAP1 SSTORE POP POP PUSH3 0x172 JUMP JUMPDEST PUSH0 DUP1 REVERT JUMPDEST PUSH0 DUP2 SWAP1 POP SWAP2 SWAP1 POP JUMP JUMPDEST PUSH3 0x11E DUP2 PUSH3 0x10A JUMP JUMPDEST DUP2 EQ PUSH3 0x129 JUMPI PUSH0 DUP1 REVERT JUMPDEST POP JUMP JUMPDEST PUSH0 DUP2 MLOAD SWAP1 POP PUSH3 0x13C DUP2 PUSH3 0x113 JUMP JUMPDEST SWAP3 SWAP2 POP POP JUMP JUMPDEST PUSH0 PUSH1 0x20 DUP3 DUP5 SUB SLT ISZERO PUSH3 0x15A JUMPI PUSH3 0x159 PUSH3 0x106 JUMP JUMPDEST JUMPDEST PUSH0 PUSH3 0x169 DUP5 DUP3 DUP6 ADD PUSH3 0x12C JUMP JUMPDEST SWAP2 POP POP SWAP3 SWAP2 POP POP JUMP JUMPDEST PUSH2 0x140C DUP1 PUSH3 0x180 PUSH0 CODECOPY PUSH0 RETURN INVALID PUSH1 0x80 PUSH1 0x40 MSTORE PUSH1 0x4 CALLDATASIZE LT PUSH2 0x90 JUMPI PUSH0 CALLDATALOAD PUSH1 0xE0 SHR DUP1 PUSH4 0xB60D4288 GT PUSH2 0x58 JUMPI DUP1 PUSH4 0xB60D4288 EQ PUSH2 0x14E JUMPI DUP1 PUSH4 0xBEA4DFB5 EQ PUSH2 0x158 JUMPI DUP1 PUSH4 0xDA4658E0 EQ PUSH2 0x182 JUMPI DUP1 PUSH4 0xECF15DFD EQ PUSH2 0x1AC JUMPI DUP1 PUSH4 0xF2FDE38B EQ PUSH2 0x1D4 JUMPI PUSH2 0x90 JUMP JUMPDEST DUP1 PUSH4 0xFF0A4DF EQ PUSH2 0x94 JUMPI DUP1 PUSH4 0x13FFFF01 EQ PUSH2 0xAA JUMPI DUP1 PUSH4 0x8DA5CB5B EQ PUSH2 0xD2 JUMPI DUP1 PUSH4 0x8EDD6EB6 EQ PUSH2 0xFC JUMPI DUP1 PUSH4 0x9F883A05 EQ PUSH2 0x112 JUMPI JUMPDEST PUSH0 DUP1 REVERT JUMPDEST CALLVALUE DUP1 ISZERO PUSH2 0x9F JUMPI PUSH0 DUP1 REVERT JUMPDEST POP PUSH2 0xA8 PUSH2 0x1FC JUMP JUMPDEST STOP JUMPDEST CALLVALUE DUP1 ISZERO PUSH2 0xB5 JUMPI PUSH0 DUP1 REVERT JUMPDEST POP PUSH2 0xD0 PUSH1 0x4 DUP1 CALLDATASIZE SUB DUP2 ADD SWAP1 PUSH2 0xCB SWAP2 SWAP1 PUSH2 0xBE7 JUMP JUMPDEST PUSH2 0x447 JUMP JUMPDEST STOP JUMPDEST CALLVALUE DUP1 ISZERO PUSH2 0xDD JUMPI PUSH0 DUP1 REVERT JUMPDEST POP PUSH2 0xE6 PUSH2 0x519 JUMP JUMPDEST PUSH1 0x40 MLOAD PUSH2 0xF3 SWAP2 SWAP1 PUSH2 0xC21 JUMP JUMPDEST PUSH1 0x40 MLOAD DUP1 SWAP2 SUB SWAP1 RETURN JUMPDEST CALLVALUE DUP1 ISZERO PUSH2 0x107 JUMPI PUSH0 DUP1 REVERT JUMPDEST POP PUSH2 0x110 PUSH2 0x53E JUMP JUMPDEST STOP JUMPDEST CALLVALUE DUP1 ISZERO PUSH2 0x11D JUMPI PUSH0 DUP1 REVERT JUMPDEST POP PUSH2 0x138 PUSH1 0x4 DUP1 CALLDATASIZE SUB DUP2 ADD SWAP1 PUSH2 0x133 SWAP2 SWAP1 PUSH2 0xBE7 JUMP JUMPDEST PUSH2 0x739 JUMP JUMPDEST PUSH1 0x40 MLOAD PUSH2 0x145 SWAP2 SWAP1 PUSH2 0xC52 JUMP JUMPDEST PUSH1 0x40 MLOAD DUP1 SWAP2 SUB SWAP1 RETURN JUMPDEST PUSH2 0x156 PUSH2 0x74D JUMP JUMPDEST STOP JUMPDEST CALLVALUE DUP1 ISZERO PUSH2 0x163 JUMPI PUSH0 DUP1 REVERT JUMPDEST POP PUSH2 0x16C PUSH2 0x904 JUMP JUMPDEST PUSH1 0x40 MLOAD PUSH2 0x179 SWAP2 SWAP1 PUSH2 0xC83 JUMP JUMPDEST PUSH1 0x40 MLOAD DUP1 SWAP2 SUB SWAP1 RETURN JUMPDEST CALLVALUE DUP1 ISZERO PUSH2 0x18D JUMPI PUSH0 DUP1 REVERT JUMPDEST POP PUSH2 0x196 PUSH2 0x9A1 JUMP JUMPDEST PUSH1 0x40 MLOAD PUSH2 0x1A3 SWAP2 SWAP1 PUSH2 0xCB6 JUMP JUMPDEST PUSH1 0x40 MLOAD DUP1 SWAP2 SUB SWAP1 RETURN JUMPDEST CALLVALUE DUP1 ISZERO PUSH2 0x1B7 JUMPI PUSH0 DUP1 REVERT JUMPDEST POP PUSH2 0x1D2 PUSH1 0x4 DUP1 CALLDATASIZE SUB DUP2 ADD SWAP1 PUSH2 0x1CD SWAP2 SWAP1 PUSH2 0xCF9 JUMP JUMPDEST PUSH2 0x9B4 JUMP JUMPDEST STOP JUMPDEST CALLVALUE DUP1 ISZERO PUSH2 0x1DF JUMPI PUSH0 DUP1 REVERT JUMPDEST POP PUSH2 0x1FA PUSH1 0x4 DUP1 CALLDATASIZE SUB DUP2 ADD SWAP1 PUSH2 0x1F5 SWAP2 SWAP1 PUSH2 0xBE7 JUMP JUMPDEST PUSH2 0xA88 JUMP JUMPDEST STOP JUMPDEST PUSH1 0x5 SLOAD PUSH1 0x4 SLOAD PUSH2 0x20C SWAP2 SWAP1 PUSH2 0xD64 JUMP JUMPDEST TIMESTAMP LT ISZERO PUSH2 0x24E JUMPI PUSH1 0x40 MLOAD PUSH32 0x8C379A000000000000000000000000000000000000000000000000000000000 DUP2 MSTORE PUSH1 0x4 ADD PUSH2 0x245 SWAP1 PUSH2 0xDF1 JUMP JUMPDEST PUSH1 0x40 MLOAD DUP1 SWAP2 SUB SWAP1 REVERT JUMPDEST PUSH9 0x1043561A8829300000 PUSH2 0x261 SELFBALANCE PUSH2 0xB5A JUMP JUMPDEST LT PUSH2 0x2A1 JUMPI PUSH1 0x40 MLOAD PUSH32 0x8C379A000000000000000000000000000000000000000000000000000000000 DUP2 MSTORE PUSH1 0x4 ADD PUSH2 0x298 SWAP1 PUSH2 0xE59 JUMP JUMPDEST PUSH1 0x40 MLOAD DUP1 SWAP2 SUB SWAP1 REVERT JUMPDEST PUSH0 DUP1 PUSH0 CALLER PUSH20 0xFFFFFFFFFFFFFFFFFFFFFFFFFFFFFFFFFFFFFFFF AND PUSH20 0xFFFFFFFFFFFFFFFFFFFFFFFFFFFFFFFFFFFFFFFF AND DUP2 MSTORE PUSH1 0x20 ADD SWAP1 DUP2 MSTORE PUSH1 0x20 ADD PUSH0 KECCAK256 SLOAD GT PUSH2 0x31F JUMPI PUSH1 0x40 MLOAD PUSH32 0x8C379A000000000000000000000000000000000000000000000000000000000 DUP2 MSTORE PUSH1 0x4 ADD PUSH2 0x316 SWAP1 PUSH2 0xEC1 JUMP JUMPDEST PUSH1 0x40 MLOAD DUP1 SWAP2 SUB SWAP1 REVERT JUMPDEST PUSH0 CALLER PUSH20 0xFFFFFFFFFFFFFFFFFFFFFFFFFFFFFFFFFFFFFFFF AND PUSH0 DUP1 CALLER PUSH20 0xFFFFFFFFFFFFFFFFFFFFFFFFFFFFFFFFFFFFFFFF AND PUSH20 0xFFFFFFFFFFFFFFFFFFFFFFFFFFFFFFFFFFFFFFFF AND DUP2 MSTORE PUSH1 0x20 ADD SWAP1 DUP2 MSTORE PUSH1 0x20 ADD PUSH0 KECCAK256 SLOAD PUSH1 0x40 MLOAD PUSH2 0x380 SWAP1 PUSH2 0xF0C JUMP JUMPDEST PUSH0 PUSH1 0x40 MLOAD DUP1 DUP4 SUB DUP2 DUP6 DUP8 GAS CALL SWAP3 POP POP POP RETURNDATASIZE DUP1 PUSH0 DUP2 EQ PUSH2 0x3BA JUMPI PUSH1 0x40 MLOAD SWAP2 POP PUSH1 0x1F NOT PUSH1 0x3F RETURNDATASIZE ADD AND DUP3 ADD PUSH1 0x40 MSTORE RETURNDATASIZE DUP3 MSTORE RETURNDATASIZE PUSH0 PUSH1 0x20 DUP5 ADD RETURNDATACOPY PUSH2 0x3BF JUMP JUMPDEST PUSH1 0x60 SWAP2 POP JUMPDEST POP POP SWAP1 POP DUP1 PUSH2 0x403 JUMPI PUSH1 0x40 MLOAD PUSH32 0x8C379A000000000000000000000000000000000000000000000000000000000 DUP2 MSTORE PUSH1 0x4 ADD PUSH2 0x3FA SWAP1 PUSH2 0xF6A JUMP JUMPDEST PUSH1 0x40 MLOAD DUP1 SWAP2 SUB SWAP1 REVERT JUMPDEST PUSH0 DUP1 PUSH0 CALLER PUSH20 0xFFFFFFFFFFFFFFFFFFFFFFFFFFFFFFFFFFFFFFFF AND PUSH20 0xFFFFFFFFFFFFFFFFFFFFFFFFFFFFFFFFFFFFFFFF AND DUP2 MSTORE PUSH1 0x20 ADD SWAP1 DUP2 MSTORE PUSH1 0x20 ADD PUSH0 KECCAK256 DUP2 SWAP1 SSTORE POP POP JUMP JUMPDEST PUSH1 0x3 PUSH0 SWAP1 SLOAD SWAP1 PUSH2 0x100 EXP SWAP1 DIV PUSH20 0xFFFFFFFFFFFFFFFFFFFFFFFFFFFFFFFFFFFFFFFF AND PUSH20 0xFFFFFFFFFFFFFFFFFFFFFFFFFFFFFFFFFFFFFFFF AND CALLER PUSH20 0xFFFFFFFFFFFFFFFFFFFFFFFFFFFFFFFFFFFFFFFF AND EQ PUSH2 0x4D6 JUMPI PUSH1 0x40 MLOAD PUSH32 0x8C379A000000000000000000000000000000000000000000000000000000000 DUP2 MSTORE PUSH1 0x4 ADD PUSH2 0x4CD SWAP1 PUSH2 0xFF8 JUMP JUMPDEST PUSH1 0x40 MLOAD DUP1 SWAP2 SUB SWAP1 REVERT JUMPDEST DUP1 PUSH1 0x6 PUSH0 PUSH2 0x100 EXP DUP2 SLOAD DUP2 PUSH20 0xFFFFFFFFFFFFFFFFFFFFFFFFFFFFFFFFFFFFFFFF MUL NOT AND SWAP1 DUP4 PUSH20 0xFFFFFFFFFFFFFFFFFFFFFFFFFFFFFFFFFFFFFFFF AND MUL OR SWAP1 SSTORE POP POP JUMP JUMPDEST PUSH1 0x3 PUSH0 SWAP1 SLOAD SWAP1 PUSH2 0x100 EXP SWAP1 DIV PUSH20 0xFFFFFFFFFFFFFFFFFFFFFFFFFFFFFFFFFFFFFFFF AND DUP2 JUMP JUMPDEST PUSH1 0x5 SLOAD PUSH1 0x4 SLOAD PUSH2 0x54E SWAP2 SWAP1 PUSH2 0xD64 JUMP JUMPDEST TIMESTAMP LT ISZERO PUSH2 0x590 JUMPI PUSH1 0x40 MLOAD PUSH32 0x8C379A000000000000000000000000000000000000000000000000000000000 DUP2 MSTORE PUSH1 0x4 ADD PUSH2 0x587 SWAP1 PUSH2 0xDF1 JUMP JUMPDEST PUSH1 0x40 MLOAD DUP1 SWAP2 SUB SWAP1 REVERT JUMPDEST PUSH1 0x3 PUSH0 SWAP1 SLOAD SWAP1 PUSH2 0x100 EXP SWAP1 DIV PUSH20 0xFFFFFFFFFFFFFFFFFFFFFFFFFFFFFFFFFFFFFFFF AND PUSH20 0xFFFFFFFFFFFFFFFFFFFFFFFFFFFFFFFFFFFFFFFF AND CALLER PUSH20 0xFFFFFFFFFFFFFFFFFFFFFFFFFFFFFFFFFFFFFFFF AND EQ PUSH2 0x61F JUMPI PUSH1 0x40 MLOAD PUSH32 0x8C379A000000000000000000000000000000000000000000000000000000000 DUP2 MSTORE PUSH1 0x4 ADD PUSH2 0x616 SWAP1 PUSH2 0xFF8 JUMP JUMPDEST PUSH1 0x40 MLOAD DUP1 SWAP2 SUB SWAP1 REVERT JUMPDEST PUSH9 0x1043561A8829300000 PUSH2 0x632 SELFBALANCE PUSH2 0xB5A JUMP JUMPDEST LT ISZERO PUSH2 0x673 JUMPI PUSH1 0x40 MLOAD PUSH32 0x8C379A000000000000000000000000000000000000000000000000000000000 DUP2 MSTORE PUSH1 0x4 ADD PUSH2 0x66A SWAP1 PUSH2 0x1060 JUMP JUMPDEST PUSH1 0x40 MLOAD DUP1 SWAP2 SUB SWAP1 REVERT JUMPDEST PUSH0 CALLER PUSH20 0xFFFFFFFFFFFFFFFFFFFFFFFFFFFFFFFFFFFFFFFF AND SELFBALANCE PUSH1 0x40 MLOAD PUSH2 0x698 SWAP1 PUSH2 0xF0C JUMP JUMPDEST PUSH0 PUSH1 0x40 MLOAD DUP1 DUP4 SUB DUP2 DUP6 DUP8 GAS CALL SWAP3 POP POP POP RETURNDATASIZE DUP1 PUSH0 DUP2 EQ PUSH2 0x6D2 JUMPI PUSH1 0x40 MLOAD SWAP2 POP PUSH1 0x1F NOT PUSH1 0x3F RETURNDATASIZE ADD AND DUP3 ADD PUSH1 0x40 MSTORE RETURNDATASIZE DUP3 MSTORE RETURNDATASIZE PUSH0 PUSH1 0x20 DUP5 ADD RETURNDATACOPY PUSH2 0x6D7 JUMP JUMPDEST PUSH1 0x60 SWAP2 POP JUMPDEST POP POP SWAP1 POP DUP1 PUSH2 0x71B JUMPI PUSH1 0x40 MLOAD PUSH32 0x8C379A000000000000000000000000000000000000000000000000000000000 DUP2 MSTORE PUSH1 0x4 ADD PUSH2 0x712 SWAP1 PUSH2 0x10C8 JUMP JUMPDEST PUSH1 0x40 MLOAD DUP1 SWAP2 SUB SWAP1 REVERT JUMPDEST PUSH1 0x1 PUSH1 0x6 PUSH1 0x14 PUSH2 0x100 EXP DUP2 SLOAD DUP2 PUSH1 0xFF MUL NOT AND SWAP1 DUP4 ISZERO ISZERO MUL OR SWAP1 SSTORE POP POP JUMP JUMPDEST PUSH0 PUSH1 0x20 MSTORE DUP1 PUSH0 MSTORE PUSH1 0x40 PUSH0 KECCAK256 PUSH0 SWAP2 POP SWAP1 POP SLOAD DUP2 JUMP JUMPDEST PUSH1 0x5 SLOAD PUSH1 0x4 SLOAD PUSH2 0x75D SWAP2 SWAP1 PUSH2 0xD64 JUMP JUMPDEST TIMESTAMP LT PUSH2 0x79E JUMPI PUSH1 0x40 MLOAD PUSH32 0x8C379A000000000000000000000000000000000000000000000000000000000 DUP2 MSTORE PUSH1 0x4 ADD PUSH2 0x795 SWAP1 PUSH2 0x1130 JUMP JUMPDEST PUSH1 0x40 MLOAD DUP1 SWAP2 SUB SWAP1 REVERT JUMPDEST PUSH2 0x7A7 CALLVALUE PUSH2 0xB5A JUMP JUMPDEST PUSH1 0x1 SLOAD GT ISZERO PUSH2 0x7EB JUMPI PUSH1 0x40 MLOAD PUSH32 0x8C379A000000000000000000000000000000000000000000000000000000000 DUP2 MSTORE PUSH1 0x4 ADD PUSH2 0x7E2 SWAP1 PUSH2 0x1198 JUMP JUMPDEST PUSH1 0x40 MLOAD DUP1 SWAP2 SUB SWAP1 REVERT JUMPDEST PUSH0 DUP1 PUSH0 CALLER PUSH20 0xFFFFFFFFFFFFFFFFFFFFFFFFFFFFFFFFFFFFFFFF AND PUSH20 0xFFFFFFFFFFFFFFFFFFFFFFFFFFFFFFFFFFFFFFFF AND DUP2 MSTORE PUSH1 0x20 ADD SWAP1 DUP2 MSTORE PUSH1 0x20 ADD PUSH0 KECCAK256 SLOAD SWAP1 POP PUSH0 DUP2 SUB PUSH2 0x878 JUMPI CALLVALUE PUSH0 DUP1 CALLER PUSH20 0xFFFFFFFFFFFFFFFFFFFFFFFFFFFFFFFFFFFFFFFF AND PUSH20 0xFFFFFFFFFFFFFFFFFFFFFFFFFFFFFFFFFFFFFFFF AND DUP2 MSTORE PUSH1 0x20 ADD SWAP1 DUP2 MSTORE PUSH1 0x20 ADD PUSH0 KECCAK256 DUP2 SWAP1 SSTORE POP PUSH2 0x901 JUMP JUMPDEST CALLVALUE PUSH0 DUP1 CALLER PUSH20 0xFFFFFFFFFFFFFFFFFFFFFFFFFFFFFFFFFFFFFFFF AND PUSH20 0xFFFFFFFFFFFFFFFFFFFFFFFFFFFFFFFFFFFFFFFF AND DUP2 MSTORE PUSH1 0x20 ADD SWAP1 DUP2 MSTORE PUSH1 0x20 ADD PUSH0 KECCAK256 SLOAD PUSH2 0x8C0 SWAP2 SWAP1 PUSH2 0xD64 JUMP JUMPDEST PUSH0 DUP1 CALLER PUSH20 0xFFFFFFFFFFFFFFFFFFFFFFFFFFFFFFFFFFFFFFFF AND PUSH20 0xFFFFFFFFFFFFFFFFFFFFFFFFFFFFFFFFFFFFFFFF AND DUP2 MSTORE PUSH1 0x20 ADD SWAP1 DUP2 MSTORE PUSH1 0x20 ADD PUSH0 KECCAK256 DUP2 SWAP1 SSTORE POP JUMPDEST POP JUMP JUMPDEST PUSH0 DUP1 PUSH1 0x2 PUSH0 SWAP1 SLOAD SWAP1 PUSH2 0x100 EXP SWAP1 DIV PUSH20 0xFFFFFFFFFFFFFFFFFFFFFFFFFFFFFFFFFFFFFFFF AND PUSH20 0xFFFFFFFFFFFFFFFFFFFFFFFFFFFFFFFFFFFFFFFF AND PUSH4 0xFEAF968C PUSH1 0x40 MLOAD DUP2 PUSH4 0xFFFFFFFF AND PUSH1 0xE0 SHL DUP2 MSTORE PUSH1 0x4 ADD PUSH1 0xA0 PUSH1 0x40 MLOAD DUP1 DUP4 SUB DUP2 DUP7 GAS STATICCALL ISZERO DUP1 ISZERO PUSH2 0x970 JUMPI RETURNDATASIZE PUSH0 DUP1 RETURNDATACOPY RETURNDATASIZE PUSH0 REVERT JUMPDEST POP POP POP POP PUSH1 0x40 MLOAD RETURNDATASIZE PUSH1 0x1F NOT PUSH1 0x1F DUP3 ADD AND DUP3 ADD DUP1 PUSH1 0x40 MSTORE POP DUP2 ADD SWAP1 PUSH2 0x994 SWAP2 SWAP1 PUSH2 0x1233 JUMP JUMPDEST POP POP POP SWAP2 POP POP DUP1 SWAP2 POP POP SWAP1 JUMP JUMPDEST PUSH1 0x6 PUSH1 0x14 SWAP1 SLOAD SWAP1 PUSH2 0x100 EXP SWAP1 DIV PUSH1 0xFF AND DUP2 JUMP JUMPDEST PUSH1 0x6 PUSH0 SWAP1 SLOAD SWAP1 PUSH2 0x100 EXP SWAP1 DIV PUSH20 0xFFFFFFFFFFFFFFFFFFFFFFFFFFFFFFFFFFFFFFFF AND PUSH20 0xFFFFFFFFFFFFFFFFFFFFFFFFFFFFFFFFFFFFFFFF AND CALLER PUSH20 0xFFFFFFFFFFFFFFFFFFFFFFFFFFFFFFFFFFFFFFFF AND EQ PUSH2 0xA43 JUMPI PUSH1 0x40 MLOAD PUSH32 0x8C379A000000000000000000000000000000000000000000000000000000000 DUP2 MSTORE PUSH1 0x4 ADD PUSH2 0xA3A SWAP1 PUSH2 0x131A JUMP JUMPDEST PUSH1 0x40 MLOAD DUP1 SWAP2 SUB SWAP1 REVERT JUMPDEST DUP1 PUSH0 DUP1 DUP5 PUSH20 0xFFFFFFFFFFFFFFFFFFFFFFFFFFFFFFFFFFFFFFFF AND PUSH20 0xFFFFFFFFFFFFFFFFFFFFFFFFFFFFFFFFFFFFFFFF AND DUP2 MSTORE PUSH1 0x20 ADD SWAP1 DUP2 MSTORE PUSH1 0x20 ADD PUSH0 KECCAK256 DUP2 SWAP1 SSTORE POP POP POP JUMP JUMPDEST PUSH1 0x3 PUSH0 SWAP1 SLOAD SWAP1 PUSH2 0x100 EXP SWAP1 DIV PUSH20 0xFFFFFFFFFFFFFFFFFFFFFFFFFFFFFFFFFFFFFFFF AND PUSH20 0xFFFFFFFFFFFFFFFFFFFFFFFFFFFFFFFFFFFFFFFF AND CALLER PUSH20 0xFFFFFFFFFFFFFFFFFFFFFFFFFFFFFFFFFFFFFFFF AND EQ PUSH2 0xB17 JUMPI PUSH1 0x40 MLOAD PUSH32 0x8C379A000000000000000000000000000000000000000000000000000000000 DUP2 MSTORE PUSH1 0x4 ADD PUSH2 0xB0E SWAP1 PUSH2 0xFF8 JUMP JUMPDEST PUSH1 0x40 MLOAD DUP1 SWAP2 SUB SWAP1 REVERT JUMPDEST DUP1 PUSH1 0x3 PUSH0 PUSH2 0x100 EXP DUP2 SLOAD DUP2 PUSH20 0xFFFFFFFFFFFFFFFFFFFFFFFFFFFFFFFFFFFFFFFF MUL NOT AND SWAP1 DUP4 PUSH20 0xFFFFFFFFFFFFFFFFFFFFFFFFFFFFFFFFFFFFFFFF AND MUL OR SWAP1 SSTORE POP POP JUMP JUMPDEST PUSH0 DUP1 PUSH2 0xB64 PUSH2 0x904 JUMP JUMPDEST SWAP1 POP PUSH4 0x5F5E100 DUP2 DUP5 PUSH2 0xB77 SWAP2 SWAP1 PUSH2 0x1338 JUMP JUMPDEST PUSH2 0xB81 SWAP2 SWAP1 PUSH2 0x13A6 JUMP JUMPDEST SWAP2 POP POP SWAP2 SWAP1 POP JUMP JUMPDEST PUSH0 DUP1 REVERT JUMPDEST PUSH0 PUSH20 0xFFFFFFFFFFFFFFFFFFFFFFFFFFFFFFFFFFFFFFFF DUP3 AND SWAP1 POP SWAP2 SWAP1 POP JUMP JUMPDEST PUSH0 PUSH2 0xBB6 DUP3 PUSH2 0xB8D JUMP JUMPDEST SWAP1 POP SWAP2 SWAP1 POP JUMP JUMPDEST PUSH2 0xBC6 DUP2 PUSH2 0xBAC JUMP JUMPDEST DUP2 EQ PUSH2 0xBD0 JUMPI PUSH0 DUP1 REVERT JUMPDEST POP JUMP JUMPDEST PUSH0 DUP2 CALLDATALOAD SWAP1 POP PUSH2 0xBE1 DUP2 PUSH2 0xBBD JUMP JUMPDEST SWAP3 SWAP2 POP POP JUMP JUMPDEST PUSH0 PUSH1 0x20 DUP3 DUP5 SUB SLT ISZERO PUSH2 0xBFC JUMPI PUSH2 0xBFB PUSH2 0xB89 JUMP JUMPDEST JUMPDEST PUSH0 PUSH2 0xC09 DUP5 DUP3 DUP6 ADD PUSH2 0xBD3 JUMP JUMPDEST SWAP2 POP POP SWAP3 SWAP2 POP POP JUMP JUMPDEST PUSH2 0xC1B DUP2 PUSH2 0xBAC JUMP JUMPDEST DUP3 MSTORE POP POP JUMP JUMPDEST PUSH0 PUSH1 0x20 DUP3 ADD SWAP1 POP PUSH2 0xC34 PUSH0 DUP4 ADD DUP5 PUSH2 0xC12 JUMP JUMPDEST SWAP3 SWAP2 POP POP JUMP JUMPDEST PUSH0 DUP2 SWAP1 POP SWAP2 SWAP1 POP JUMP JUMPDEST PUSH2 0xC4C DUP2 PUSH2 0xC3A JUMP JUMPDEST DUP3 MSTORE POP POP JUMP JUMPDEST PUSH0 PUSH1 0x20 DUP3 ADD SWAP1 POP PUSH2 0xC65 PUSH0 DUP4 ADD DUP5 PUSH2 0xC43 JUMP JUMPDEST SWAP3 SWAP2 POP POP JUMP JUMPDEST PUSH0 DUP2 SWAP1 POP SWAP2 SWAP1 POP JUMP JUMPDEST PUSH2 0xC7D DUP2 PUSH2 0xC6B JUMP JUMPDEST DUP3 MSTORE POP POP JUMP JUMPDEST PUSH0 PUSH1 0x20 DUP3 ADD SWAP1 POP PUSH2 0xC96 PUSH0 DUP4 ADD DUP5 PUSH2 0xC74 JUMP JUMPDEST SWAP3 SWAP2 POP POP JUMP JUMPDEST PUSH0 DUP2 ISZERO ISZERO SWAP1 POP SWAP2 SWAP1 POP JUMP JUMPDEST PUSH2 0xCB0 DUP2 PUSH2 0xC9C JUMP JUMPDEST DUP3 MSTORE POP POP JUMP JUMPDEST PUSH0 PUSH1 0x20 DUP3 ADD SWAP1 POP PUSH2 0xCC9 PUSH0 DUP4 ADD DUP5 PUSH2 0xCA7 JUMP JUMPDEST SWAP3 SWAP2 POP POP JUMP JUMPDEST PUSH2 0xCD8 DUP2 PUSH2 0xC3A JUMP JUMPDEST DUP2 EQ PUSH2 0xCE2 JUMPI PUSH0 DUP1 REVERT JUMPDEST POP JUMP JUMPDEST PUSH0 DUP2 CALLDATALOAD SWAP1 POP PUSH2 0xCF3 DUP2 PUSH2 0xCCF JUMP JUMPDEST SWAP3 SWAP2 POP POP JUMP JUMPDEST PUSH0 DUP1 PUSH1 0x40 DUP4 DUP6 SUB SLT ISZERO PUSH2 0xD0F JUMPI PUSH2 0xD0E PUSH2 0xB89 JUMP JUMPDEST JUMPDEST PUSH0 PUSH2 0xD1C DUP6 DUP3 DUP7 ADD PUSH2 0xBD3 JUMP JUMPDEST SWAP3 POP POP PUSH1 0x20 PUSH2 0xD2D DUP6 DUP3 DUP7 ADD PUSH2 0xCE5 JUMP JUMPDEST SWAP2 POP POP SWAP3 POP SWAP3 SWAP1 POP JUMP JUMPDEST PUSH32 0x4E487B7100000000000000000000000000000000000000000000000000000000 PUSH0 MSTORE PUSH1 0x11 PUSH1 0x4 MSTORE PUSH1 0x24 PUSH0 REVERT JUMPDEST PUSH0 PUSH2 0xD6E DUP3 PUSH2 0xC3A JUMP JUMPDEST SWAP2 POP PUSH2 0xD79 DUP4 PUSH2 0xC3A JUMP JUMPDEST SWAP3 POP DUP3 DUP3 ADD SWAP1 POP DUP1 DUP3 GT ISZERO PUSH2 0xD91 JUMPI PUSH2 0xD90 PUSH2 0xD37 JUMP JUMPDEST JUMPDEST SWAP3 SWAP2 POP POP JUMP JUMPDEST PUSH0 DUP3 DUP3 MSTORE PUSH1 0x20 DUP3 ADD SWAP1 POP SWAP3 SWAP2 POP POP JUMP JUMPDEST PUSH32 0x77696E646F77206973206E6F7420636C6F736564000000000000000000000000 PUSH0 DUP3 ADD MSTORE POP JUMP JUMPDEST PUSH0 PUSH2 0xDDB PUSH1 0x14 DUP4 PUSH2 0xD97 JUMP JUMPDEST SWAP2 POP PUSH2 0xDE6 DUP3 PUSH2 0xDA7 JUMP JUMPDEST PUSH1 0x20 DUP3 ADD SWAP1 POP SWAP2 SWAP1 POP JUMP JUMPDEST PUSH0 PUSH1 0x20 DUP3 ADD SWAP1 POP DUP2 DUP2 SUB PUSH0 DUP4 ADD MSTORE PUSH2 0xE08 DUP2 PUSH2 0xDCF JUMP JUMPDEST SWAP1 POP SWAP2 SWAP1 POP JUMP JUMPDEST PUSH32 0x5461726765742068617320726561636865642100000000000000000000000000 PUSH0 DUP3 ADD MSTORE POP JUMP JUMPDEST PUSH0 PUSH2 0xE43 PUSH1 0x13 DUP4 PUSH2 0xD97 JUMP JUMPDEST SWAP2 POP PUSH2 0xE4E DUP3 PUSH2 0xE0F JUMP JUMPDEST PUSH1 0x20 DUP3 ADD SWAP1 POP SWAP2 SWAP1 POP JUMP JUMPDEST PUSH0 PUSH1 0x20 DUP3 ADD SWAP1 POP DUP2 DUP2 SUB PUSH0 DUP4 ADD MSTORE PUSH2 0xE70 DUP2 PUSH2 0xE37 JUMP JUMPDEST SWAP1 POP SWAP2 SWAP1 POP JUMP JUMPDEST PUSH32 0x7468657265206973206E6F2066756E6420666F7220796F752000000000000000 PUSH0 DUP3 ADD MSTORE POP JUMP JUMPDEST PUSH0 PUSH2 0xEAB PUSH1 0x19 DUP4 PUSH2 0xD97 JUMP JUMPDEST SWAP2 POP PUSH2 0xEB6 DUP3 PUSH2 0xE77 JUMP JUMPDEST PUSH1 0x20 DUP3 ADD SWAP1 POP SWAP2 SWAP1 POP JUMP JUMPDEST PUSH0 PUSH1 0x20 DUP3 ADD SWAP1 POP DUP2 DUP2 SUB PUSH0 DUP4 ADD MSTORE PUSH2 0xED8 DUP2 PUSH2 0xE9F JUMP JUMPDEST SWAP1 POP SWAP2 SWAP1 POP JUMP JUMPDEST PUSH0 DUP2 SWAP1 POP SWAP3 SWAP2 POP POP JUMP JUMPDEST POP JUMP JUMPDEST PUSH0 PUSH2 0xEF7 PUSH0 DUP4 PUSH2 0xEDF JUMP JUMPDEST SWAP2 POP PUSH2 0xF02 DUP3 PUSH2 0xEE9 JUMP JUMPDEST PUSH0 DUP3 ADD SWAP1 POP SWAP2 SWAP1 POP JUMP JUMPDEST PUSH0 PUSH2 0xF16 DUP3 PUSH2 0xEEC JUMP JUMPDEST SWAP2 POP DUP2 SWAP1 POP SWAP2 SWAP1 POP JUMP JUMPDEST PUSH32 0x726566756E64206661696C656421000000000000000000000000000000000000 PUSH0 DUP3 ADD MSTORE POP JUMP JUMPDEST PUSH0 PUSH2 0xF54 PUSH1 0xE DUP4 PUSH2 0xD97 JUMP JUMPDEST SWAP2 POP PUSH2 0xF5F DUP3 PUSH2 0xF20 JUMP JUMPDEST PUSH1 0x20 DUP3 ADD SWAP1 POP SWAP2 SWAP1 POP JUMP JUMPDEST PUSH0 PUSH1 0x20 DUP3 ADD SWAP1 POP DUP2 DUP2 SUB PUSH0 DUP4 ADD MSTORE PUSH2 0xF81 DUP2 PUSH2 0xF48 JUMP JUMPDEST SWAP1 POP SWAP2 SWAP1 POP JUMP JUMPDEST PUSH32 0x4F6E6C79206F776E65722063616E2063616C6C20746869732066756E6374696F PUSH0 DUP3 ADD MSTORE PUSH32 0x6E00000000000000000000000000000000000000000000000000000000000000 PUSH1 0x20 DUP3 ADD MSTORE POP JUMP JUMPDEST PUSH0 PUSH2 0xFE2 PUSH1 0x21 DUP4 PUSH2 0xD97 JUMP JUMPDEST SWAP2 POP PUSH2 0xFED DUP3 PUSH2 0xF88 JUMP JUMPDEST PUSH1 0x40 DUP3 ADD SWAP1 POP SWAP2 SWAP1 POP JUMP JUMPDEST PUSH0 PUSH1 0x20 DUP3 ADD SWAP1 POP DUP2 DUP2 SUB PUSH0 DUP4 ADD MSTORE PUSH2 0x100F DUP2 PUSH2 0xFD6 JUMP JUMPDEST SWAP1 POP SWAP2 SWAP1 POP JUMP JUMPDEST PUSH32 0x546172676574206973206E6F7420726561636865642100000000000000000000 PUSH0 DUP3 ADD MSTORE POP JUMP JUMPDEST PUSH0 PUSH2 0x104A PUSH1 0x16 DUP4 PUSH2 0xD97 JUMP JUMPDEST SWAP2 POP PUSH2 0x1055 DUP3 PUSH2 0x1016 JUMP JUMPDEST PUSH1 0x20 DUP3 ADD SWAP1 POP SWAP2 SWAP1 POP JUMP JUMPDEST PUSH0 PUSH1 0x20 DUP3 ADD SWAP1 POP DUP2 DUP2 SUB PUSH0 DUP4 ADD MSTORE PUSH2 0x1077 DUP2 PUSH2 0x103E JUMP JUMPDEST SWAP1 POP SWAP2 SWAP1 POP JUMP JUMPDEST PUSH32 0x7478206669616C65642100000000000000000000000000000000000000000000 PUSH0 DUP3 ADD MSTORE POP JUMP JUMPDEST PUSH0 PUSH2 0x10B2 PUSH1 0xA DUP4 PUSH2 0xD97 JUMP JUMPDEST SWAP2 POP PUSH2 0x10BD DUP3 PUSH2 0x107E JUMP JUMPDEST PUSH1 0x20 DUP3 ADD SWAP1 POP SWAP2 SWAP1 POP JUMP JUMPDEST PUSH0 PUSH1 0x20 DUP3 ADD SWAP1 POP DUP2 DUP2 SUB PUSH0 DUP4 ADD MSTORE PUSH2 0x10DF DUP2 PUSH2 0x10A6 JUMP JUMPDEST SWAP1 POP SWAP2 SWAP1 POP JUMP JUMPDEST PUSH32 0x77696E646F7720697320636C6F73656400000000000000000000000000000000 PUSH0 DUP3 ADD MSTORE POP JUMP JUMPDEST PUSH0 PUSH2 0x111A PUSH1 0x10 DUP4 PUSH2 0xD97 JUMP JUMPDEST SWAP2 POP PUSH2 0x1125 DUP3 PUSH2 0x10E6 JUMP JUMPDEST PUSH1 0x20 DUP3 ADD SWAP1 POP SWAP2 SWAP1 POP JUMP JUMPDEST PUSH0 PUSH1 0x20 DUP3 ADD SWAP1 POP DUP2 DUP2 SUB PUSH0 DUP4 ADD MSTORE PUSH2 0x1147 DUP2 PUSH2 0x110E JUMP JUMPDEST SWAP1 POP SWAP2 SWAP1 POP JUMP JUMPDEST PUSH32 0x53656E64206D6F72652045544821000000000000000000000000000000000000 PUSH0 DUP3 ADD MSTORE POP JUMP JUMPDEST PUSH0 PUSH2 0x1182 PUSH1 0xE DUP4 PUSH2 0xD97 JUMP JUMPDEST SWAP2 POP PUSH2 0x118D DUP3 PUSH2 0x114E JUMP JUMPDEST PUSH1 0x20 DUP3 ADD SWAP1 POP SWAP2 SWAP1 POP JUMP JUMPDEST PUSH0 PUSH1 0x20 DUP3 ADD SWAP1 POP DUP2 DUP2 SUB PUSH0 DUP4 ADD MSTORE PUSH2 0x11AF DUP2 PUSH2 0x1176 JUMP JUMPDEST SWAP1 POP SWAP2 SWAP1 POP JUMP JUMPDEST PUSH0 PUSH10 0xFFFFFFFFFFFFFFFFFFFF DUP3 AND SWAP1 POP SWAP2 SWAP1 POP JUMP JUMPDEST PUSH2 0x11D4 DUP2 PUSH2 0x11B6 JUMP JUMPDEST DUP2 EQ PUSH2 0x11DE JUMPI PUSH0 DUP1 REVERT JUMPDEST POP JUMP JUMPDEST PUSH0 DUP2 MLOAD SWAP1 POP PUSH2 0x11EF DUP2 PUSH2 0x11CB JUMP JUMPDEST SWAP3 SWAP2 POP POP JUMP JUMPDEST PUSH2 0x11FE DUP2 PUSH2 0xC6B JUMP JUMPDEST DUP2 EQ PUSH2 0x1208 JUMPI PUSH0 DUP1 REVERT JUMPDEST POP JUMP JUMPDEST PUSH0 DUP2 MLOAD SWAP1 POP PUSH2 0x1219 DUP2 PUSH2 0x11F5 JUMP JUMPDEST SWAP3 SWAP2 POP POP JUMP JUMPDEST PUSH0 DUP2 MLOAD SWAP1 POP PUSH2 0x122D DUP2 PUSH2 0xCCF JUMP JUMPDEST SWAP3 SWAP2 POP POP JUMP JUMPDEST PUSH0 DUP1 PUSH0 DUP1 PUSH0 PUSH1 0xA0 DUP7 DUP9 SUB SLT ISZERO PUSH2 0x124C JUMPI PUSH2 0x124B PUSH2 0xB89 JUMP JUMPDEST JUMPDEST PUSH0 PUSH2 0x1259 DUP9 DUP3 DUP10 ADD PUSH2 0x11E1 JUMP JUMPDEST SWAP6 POP POP PUSH1 0x20 PUSH2 0x126A DUP9 DUP3 DUP10 ADD PUSH2 0x120B JUMP JUMPDEST SWAP5 POP POP PUSH1 0x40 PUSH2 0x127B DUP9 DUP3 DUP10 ADD PUSH2 0x121F JUMP JUMPDEST SWAP4 POP POP PUSH1 0x60 PUSH2 0x128C DUP9 DUP3 DUP10 ADD PUSH2 0x121F JUMP JUMPDEST SWAP3 POP POP PUSH1 0x80 PUSH2 0x129D DUP9 DUP3 DUP10 ADD PUSH2 0x11E1 JUMP JUMPDEST SWAP2 POP POP SWAP3 SWAP6 POP SWAP3 SWAP6 SWAP1 SWAP4 POP JUMP JUMPDEST PUSH32 0x796F7520646F6E742068617665207065726D697373696F6E20746F2063616C6C PUSH0 DUP3 ADD MSTORE PUSH32 0x20746869732066756E6374696F6E210000000000000000000000000000000000 PUSH1 0x20 DUP3 ADD MSTORE POP JUMP JUMPDEST PUSH0 PUSH2 0x1304 PUSH1 0x2F DUP4 PUSH2 0xD97 JUMP JUMPDEST SWAP2 POP PUSH2 0x130F DUP3 PUSH2 0x12AA JUMP JUMPDEST PUSH1 0x40 DUP3 ADD SWAP1 POP SWAP2 SWAP1 POP JUMP JUMPDEST PUSH0 PUSH1 0x20 DUP3 ADD SWAP1 POP DUP2 DUP2 SUB PUSH0 DUP4 ADD MSTORE PUSH2 0x1331 DUP2 PUSH2 0x12F8 JUMP JUMPDEST SWAP1 POP SWAP2 SWAP1 POP JUMP JUMPDEST PUSH0 PUSH2 0x1342 DUP3 PUSH2 0xC3A JUMP JUMPDEST SWAP2 POP PUSH2 0x134D DUP4 PUSH2 0xC3A JUMP JUMPDEST SWAP3 POP DUP3 DUP3 MUL PUSH2 0x135B DUP2 PUSH2 0xC3A JUMP JUMPDEST SWAP2 POP DUP3 DUP3 DIV DUP5 EQ DUP4 ISZERO OR PUSH2 0x1372 JUMPI PUSH2 0x1371 PUSH2 0xD37 JUMP JUMPDEST JUMPDEST POP SWAP3 SWAP2 POP POP JUMP JUMPDEST PUSH32 0x4E487B7100000000000000000000000000000000000000000000000000000000 PUSH0 MSTORE PUSH1 0x12 PUSH1 0x4 MSTORE PUSH1 0x24 PUSH0 REVERT JUMPDEST PUSH0 PUSH2 0x13B0 DUP3 PUSH2 0xC3A JUMP JUMPDEST SWAP2 POP PUSH2 0x13BB DUP4 PUSH2 0xC3A JUMP JUMPDEST SWAP3 POP DUP3 PUSH2 0x13CB JUMPI PUSH2 0x13CA PUSH2 0x1379 JUMP JUMPDEST JUMPDEST DUP3 DUP3 DIV SWAP1 POP SWAP3 SWAP2 POP POP JUMP INVALID LOG2 PUSH5 0x6970667358 0x22 SLT KECCAK256 JUMPI 0xED 0x5E ORIGIN 0xC5 0xE0 0xE0 MOD 0xB8 CALLCODE 0x23 0xD8 PUSH17 0x15EB375515FEC5BA27C114A8E1076E262B 0xC4 RETURNDATASIZE PUSH5 0x736F6C6343 STOP ADDMOD EQ STOP CALLER "
		},
		"gasEstimates": {
			"creation": {
				"codeDepositCost": "1026400",
				"executionCost": "infinite",
				"totalCost": "infinite"
			},
			"external": {
				"fund()": "infinite",
				"fundersToAmount(address)": "2890",
				"getChainlinkDataFeedLatestAnswer()": "infinite",
				"getFund()": "infinite",
				"getFundSuccess()": "2561",
				"owner()": "2553",
				"reFund()": "infinite",
				"setErc20Addr(address)": "26907",
				"setFundersAmount(address,uint256)": "25057",
				"transferOwnership(address)": "26972"
			},
			"internal": {
				"convertEthToUsd(uint256)": "infinite"
			}
		},
		"methodIdentifiers": {
			"fund()": "b60d4288",
			"fundersToAmount(address)": "9f883a05",
			"getChainlinkDataFeedLatestAnswer()": "bea4dfb5",
			"getFund()": "8edd6eb6",
			"getFundSuccess()": "da4658e0",
			"owner()": "8da5cb5b",
			"reFund()": "0ff0a4df",
			"setErc20Addr(address)": "13ffff01",
			"setFundersAmount(address,uint256)": "ecf15dfd",
			"transferOwnership(address)": "f2fde38b"
		}
	},
	"abi": [
		{
			"inputs": [
				{
					"internalType": "uint256",
					"name": "_lockTime",
					"type": "uint256"
				}
			],
			"stateMutability": "nonpayable",
			"type": "constructor"
		},
		{
			"inputs": [],
			"name": "fund",
			"outputs": [],
			"stateMutability": "payable",
			"type": "function"
		},
		{
			"inputs": [
				{
					"internalType": "address",
					"name": "",
					"type": "address"
				}
			],
			"name": "fundersToAmount",
			"outputs": [
				{
					"internalType": "uint256",
					"name": "",
					"type": "uint256"
				}
			],
			"stateMutability": "view",
			"type": "function"
		},
		{
			"inputs": [],
			"name": "getChainlinkDataFeedLatestAnswer",
			"outputs": [
				{
					"internalType": "int256",
					"name": "",
					"type": "int256"
				}
			],
			"stateMutability": "view",
			"type": "function"
		},
		{
			"inputs": [],
			"name": "getFund",
			"outputs": [],
			"stateMutability": "nonpayable",
			"type": "function"
		},
		{
			"inputs": [],
			"name": "getFundSuccess",
			"outputs": [
				{
					"internalType": "bool",
					"name": "",
					"type": "bool"
				}
			],
			"stateMutability": "view",
			"type": "function"
		},
		{
			"inputs": [],
			"name": "owner",
			"outputs": [
				{
					"internalType": "address",
					"name": "",
					"type": "address"
				}
			],
			"stateMutability": "view",
			"type": "function"
		},
		{
			"inputs": [],
			"name": "reFund",
			"outputs": [],
			"stateMutability": "nonpayable",
			"type": "function"
		},
		{
			"inputs": [
				{
					"internalType": "address",
					"name": "_erc20Address",
					"type": "address"
				}
			],
			"name": "setErc20Addr",
			"outputs": [],
			"stateMutability": "nonpayable",
			"type": "function"
		},
		{
			"inputs": [
				{
					"internalType": "address",
					"name": "funder",
					"type": "address"
				},
				{
					"internalType": "uint256",
					"name": "amountToUpdate",
					"type": "uint256"
				}
			],
			"name": "setFundersAmount",
			"outputs": [],
			"stateMutability": "nonpayable",
			"type": "function"
		},
		{
			"inputs": [
				{
					"internalType": "address",
					"name": "newOwner",
					"type": "address"
				}
			],
			"name": "transferOwnership",
			"outputs": [],
			"stateMutability": "nonpayable",
			"type": "function"
		}
	]
}